{
  "contractName": "SteelTradeManager",
  "abi": [
    {
      "inputs": [
        {
          "internalType": "address",
          "name": "_steelAssetManager",
          "type": "address"
        }
      ],
      "stateMutability": "nonpayable",
      "type": "constructor"
    },
    {
      "anonymous": false,
      "inputs": [
        {
          "indexed": true,
          "internalType": "address",
          "name": "fromKey",
          "type": "address"
        },
        {
          "indexed": true,
          "internalType": "address",
          "name": "toKey",
          "type": "address"
        },
        {
          "indexed": true,
          "internalType": "bytes32",
          "name": "productAssetId",
          "type": "bytes32"
        },
        {
          "indexed": false,
          "internalType": "uint256",
          "name": "num",
          "type": "uint256"
        },
        {
          "indexed": false,
          "internalType": "uint256",
          "name": "date",
          "type": "uint256"
        },
        {
          "indexed": false,
          "internalType": "bytes32",
          "name": "tradeId",
          "type": "bytes32"
        },
        {
          "indexed": false,
          "internalType": "bytes32",
          "name": "fromId",
          "type": "bytes32"
        },
        {
          "indexed": false,
          "internalType": "bytes32",
          "name": "toId",
          "type": "bytes32"
        }
      ],
      "name": "SteelProductAssetTrade",
      "type": "event"
    },
    {
      "anonymous": false,
      "inputs": [
        {
          "indexed": true,
          "internalType": "address",
          "name": "fromKey",
          "type": "address"
        },
        {
          "indexed": true,
          "internalType": "address",
          "name": "toKey",
          "type": "address"
        },
        {
          "indexed": true,
          "internalType": "bytes32",
          "name": "rawAssetId",
          "type": "bytes32"
        },
        {
          "indexed": false,
          "internalType": "uint256",
          "name": "num",
          "type": "uint256"
        },
        {
          "indexed": false,
          "internalType": "uint256",
          "name": "date",
          "type": "uint256"
        },
        {
          "indexed": false,
          "internalType": "bytes32",
          "name": "tradeId",
          "type": "bytes32"
        },
        {
          "indexed": false,
          "internalType": "bytes32",
          "name": "fromId",
          "type": "bytes32"
        },
        {
          "indexed": false,
          "internalType": "bytes32",
          "name": "toId",
          "type": "bytes32"
        }
      ],
      "name": "SteelRawAssetTrade",
      "type": "event"
    },
    {
      "inputs": [],
      "name": "steelAssetManager",
      "outputs": [
        {
          "internalType": "contract SteelAssetManager",
          "name": "",
          "type": "address"
        }
      ],
      "stateMutability": "view",
      "type": "function"
    },
    {
      "inputs": [
        {
          "internalType": "address",
          "name": "toKey",
          "type": "address"
        },
        {
          "internalType": "bytes32",
          "name": "rawAssetId",
          "type": "bytes32"
        },
        {
          "internalType": "uint256",
          "name": "num",
          "type": "uint256"
        }
      ],
      "name": "tradeSteelRawAsset",
      "outputs": [
        {
          "internalType": "bytes32",
          "name": "",
          "type": "bytes32"
        },
        {
          "internalType": "bytes32",
          "name": "",
          "type": "bytes32"
        },
        {
          "internalType": "bytes32",
          "name": "",
          "type": "bytes32"
        }
      ],
      "stateMutability": "nonpayable",
      "type": "function"
    },
    {
      "inputs": [
        {
          "internalType": "address",
          "name": "toKey",
          "type": "address"
        },
        {
          "internalType": "bytes32",
          "name": "productAssetId",
          "type": "bytes32"
        },
        {
          "internalType": "uint256",
          "name": "num",
          "type": "uint256"
        }
      ],
      "name": "tradeSteelProductAsset",
      "outputs": [
        {
          "internalType": "bytes32",
          "name": "",
          "type": "bytes32"
        },
        {
          "internalType": "bytes32",
          "name": "",
          "type": "bytes32"
        },
        {
          "internalType": "bytes32",
          "name": "",
          "type": "bytes32"
        }
      ],
      "stateMutability": "nonpayable",
      "type": "function"
    },
    {
      "inputs": [
        {
          "internalType": "bytes32",
          "name": "id",
          "type": "bytes32"
        }
      ],
      "name": "getSteelRawTrade",
      "outputs": [
        {
          "internalType": "bytes32",
          "name": "",
          "type": "bytes32"
        },
        {
          "internalType": "address",
          "name": "",
          "type": "address"
        },
        {
          "internalType": "address",
          "name": "",
          "type": "address"
        },
        {
          "internalType": "bytes32",
          "name": "",
          "type": "bytes32"
        },
        {
          "internalType": "uint256",
          "name": "",
          "type": "uint256"
        },
        {
          "internalType": "uint256",
          "name": "",
          "type": "uint256"
        }
      ],
      "stateMutability": "view",
      "type": "function"
    },
    {
      "inputs": [
        {
          "internalType": "bytes32",
          "name": "id",
          "type": "bytes32"
        }
      ],
      "name": "getSteelProductTrade",
      "outputs": [
        {
          "internalType": "bytes32",
          "name": "",
          "type": "bytes32"
        },
        {
          "internalType": "address",
          "name": "",
          "type": "address"
        },
        {
          "internalType": "address",
          "name": "",
          "type": "address"
        },
        {
          "internalType": "bytes32",
          "name": "",
          "type": "bytes32"
        },
        {
          "internalType": "uint256",
          "name": "",
          "type": "uint256"
        },
        {
          "internalType": "uint256",
          "name": "",
          "type": "uint256"
        }
      ],
      "stateMutability": "view",
      "type": "function"
    }
  ],
  "bytecode": "0x608060405234801561001057600080fd5b506040516119c43803806119c48339818101604052602081101561003357600080fd5b810190808051906020019092919050505080600260006101000a81548173ffffffffffffffffffffffffffffffffffffffff021916908373ffffffffffffffffffffffffffffffffffffffff1602179055505061192f806100956000396000f3fe608060405234801561001057600080fd5b5060043610610074576000357c010000000000000000000000000000000000000000000000000000000090048063020b83381461007957806389d8b599146100ad5780639e2cf5281461013e578063c3d9d17e146101cf578063dbb9f61114610249575b600080fd5b6100816102c3565b604051808273ffffffffffffffffffffffffffffffffffffffff16815260200191505060405180910390f35b6100d9600480360360208110156100c357600080fd5b81019080803590602001909291905050506102e9565b604051808781526020018673ffffffffffffffffffffffffffffffffffffffff1681526020018573ffffffffffffffffffffffffffffffffffffffff168152602001848152602001838152602001828152602001965050505050505060405180910390f35b61016a6004803603602081101561015457600080fd5b810190808035906020019092919050505061041c565b604051808781526020018673ffffffffffffffffffffffffffffffffffffffff1681526020018573ffffffffffffffffffffffffffffffffffffffff168152602001848152602001838152602001828152602001965050505050505060405180910390f35b610225600480360360608110156101e557600080fd5b81019080803573ffffffffffffffffffffffffffffffffffffffff169060200190929190803590602001909291908035906020019092919050505061054e565b60405180848152602001838152602001828152602001935050505060405180910390f35b61029f6004803603606081101561025f57600080fd5b81019080803573ffffffffffffffffffffffffffffffffffffffff1690602001909291908035906020019092919080359060200190929190505050610c62565b60405180848152602001838152602001828152602001935050505060405180910390f35b600260009054906101000a900473ffffffffffffffffffffffffffffffffffffffff1681565b6000806000806000806000600160008981526020019081526020016000206040518060c0016040529081600082015481526020016001820160009054906101000a900473ffffffffffffffffffffffffffffffffffffffff1673ffffffffffffffffffffffffffffffffffffffff1673ffffffffffffffffffffffffffffffffffffffff1681526020016002820160009054906101000a900473ffffffffffffffffffffffffffffffffffffffff1673ffffffffffffffffffffffffffffffffffffffff1673ffffffffffffffffffffffffffffffffffffffff16815260200160038201548152602001600482015481526020016005820154815250509050806000015181602001518260400151836060015184608001518560a001519650965096509650965096505091939550919395565b60008060008060008060008060008981526020019081526020016000206040518060c0016040529081600082015481526020016001820160009054906101000a900473ffffffffffffffffffffffffffffffffffffffff1673ffffffffffffffffffffffffffffffffffffffff1673ffffffffffffffffffffffffffffffffffffffff1681526020016002820160009054906101000a900473ffffffffffffffffffffffffffffffffffffffff1673ffffffffffffffffffffffffffffffffffffffff1673ffffffffffffffffffffffffffffffffffffffff16815260200160038201548152602001600482015481526020016005820154815250509050806000015181602001518260400151836060015184608001518560a001519650965096509650965096505091939550919395565b60008060008073ffffffffffffffffffffffffffffffffffffffff168673ffffffffffffffffffffffffffffffffffffffff1614156105f5576040517f08c379a00000000000000000000000000000000000000000000000000000000081526004018080602001828103825260198152602001807f547261646520746f20746865207a65726f20616464726573730000000000000081525060200191505060405180910390fd5b6000841161066b576040517f08c379a000000000000000000000000000000000000000000000000000000000815260040180806020018281038252601e8152602001807f546865206e756d206d7573742062652067726561746572207468616e2030000081525060200191505060405180910390fd5b6000806000600260009054906101000a900473ffffffffffffffffffffffffffffffffffffffff1673ffffffffffffffffffffffffffffffffffffffff166362b4dbf9896040518263ffffffff167c0100000000000000000000000000000000000000000000000000000000028152600401808281526020019150506101406040518083038186803b15801561070057600080fd5b505afa158015610714573d6000803e3d6000fd5b505050506040513d61014081101561072b57600080fd5b8101908080519060200190929190805190602001909291908051906020019092919080519060200190929190805190602001909291908051906020019092919080519060200190929190805190602001909291908051906020019092919080519060200190929190505050509850505050955050509350503373ffffffffffffffffffffffffffffffffffffffff168373ffffffffffffffffffffffffffffffffffffffff1614610844576040517f08c379a000000000000000000000000000000000000000000000000000000000815260040180806020018281038252601b8152602001807f5468652073656e64657220686173206e6f206f776e657273686970000000000081525060200191505060405180910390fd5b801561089b576040517f08c379a00000000000000000000000000000000000000000000000000000000081526004018080602001828103825260228152602001806118af6022913960400191505060405180910390fd5b60006108aa338b8b8b42611469565b9050600260009054906101000a900473ffffffffffffffffffffffffffffffffffffffff1673ffffffffffffffffffffffffffffffffffffffff1663db852c9d8a426040518363ffffffff167c01000000000000000000000000000000000000000000000000000000000281526004018083815260200182815260200192505050602060405180830381600087803b15801561094557600080fd5b505af1158015610959573d6000803e3d6000fd5b505050506040513d602081101561096f57600080fd5b810190808051906020019092919050505050610994888461167690919063ffffffff16565b925060008060010290506000841115610ab557600260009054906101000a900473ffffffffffffffffffffffffffffffffffffffff1673ffffffffffffffffffffffffffffffffffffffff16633a3e60238b3387426001886040518763ffffffff167c0100000000000000000000000000000000000000000000000000000000028152600401808781526020018673ffffffffffffffffffffffffffffffffffffffff1681526020018581526020018481526020018381526020018281526020019650505050505050602060405180830381600087803b158015610a7757600080fd5b505af1158015610a8b573d6000803e3d6000fd5b505050506040513d6020811015610aa157600080fd5b810190808051906020019092919050505090505b6000600260009054906101000a900473ffffffffffffffffffffffffffffffffffffffff1673ffffffffffffffffffffffffffffffffffffffff16633a3e60238c8e8d426001896040518763ffffffff167c0100000000000000000000000000000000000000000000000000000000028152600401808781526020018673ffffffffffffffffffffffffffffffffffffffff1681526020018581526020018481526020018381526020018281526020019650505050505050602060405180830381600087803b158015610b8757600080fd5b505af1158015610b9b573d6000803e3d6000fd5b505050506040513d6020811015610bb157600080fd5b810190808051906020019092919050505090508a8c73ffffffffffffffffffffffffffffffffffffffff163373ffffffffffffffffffffffffffffffffffffffff167fb414f6d3c9d0705128da833074b7c1d7d7f07333f86e85344187e73247bb83cb8d42888888604051808681526020018581526020018481526020018381526020018281526020019550505050505060405180910390a482828298509850985050505050505093509350939050565b60008060008073ffffffffffffffffffffffffffffffffffffffff168673ffffffffffffffffffffffffffffffffffffffff161415610d09576040517f08c379a00000000000000000000000000000000000000000000000000000000081526004018080602001828103825260198152602001807f547261646520746f20746865207a65726f20616464726573730000000000000081525060200191505060405180910390fd5b60008411610d7f576040517f08c379a000000000000000000000000000000000000000000000000000000000815260040180806020018281038252601e8152602001807f546865206e756d206d7573742062652067726561746572207468616e2030000081525060200191505060405180910390fd5b6000806000600260009054906101000a900473ffffffffffffffffffffffffffffffffffffffff1673ffffffffffffffffffffffffffffffffffffffff1663d2bee76a896040518263ffffffff167c01000000000000000000000000000000000000000000000000000000000281526004018082815260200191505060006040518083038186803b158015610e1357600080fd5b505afa158015610e27573d6000803e3d6000fd5b505050506040513d6000823e3d601f19601f82011682018060405250610180811015610e5257600080fd5b81019080805190602001909291908051906020019092919080519060200190929190805190602001909291908051906020019092919080516040519392919084640100000000821115610ea457600080fd5b83820191506020820185811115610eba57600080fd5b8251866001820283011164010000000082111715610ed757600080fd5b8083526020830192505050908051906020019080838360005b83811015610f0b578082015181840152602081019050610ef0565b50505050905090810190601f168015610f385780820380516001836020036101000a031916815260200191505b50604052602001805190602001909291908051906020019092919080519060200190929190805190602001909291908051906020019092919080519060200190929190505050509a505050509750505050509350503373ffffffffffffffffffffffffffffffffffffffff168373ffffffffffffffffffffffffffffffffffffffff161461102e576040517f08c379a000000000000000000000000000000000000000000000000000000000815260040180806020018281038252601b8152602001807f5468652073656e64657220686173206e6f206f776e657273686970000000000081525060200191505060405180910390fd5b80156110a2576040517f08c379a000000000000000000000000000000000000000000000000000000000815260040180806020018281038252601e8152602001807f5468652072617720617373657420686173206265656e2064656c65746564000081525060200191505060405180910390fd5b60006110b1338b8b8b42611683565b9050600260009054906101000a900473ffffffffffffffffffffffffffffffffffffffff1673ffffffffffffffffffffffffffffffffffffffff166382a42c178a426040518363ffffffff167c01000000000000000000000000000000000000000000000000000000000281526004018083815260200182815260200192505050602060405180830381600087803b15801561114c57600080fd5b505af1158015611160573d6000803e3d6000fd5b505050506040513d602081101561117657600080fd5b81019080805190602001909291905050505061119b888461167690919063ffffffff16565b9250600080600102905060008411156112bc57600260009054906101000a900473ffffffffffffffffffffffffffffffffffffffff1673ffffffffffffffffffffffffffffffffffffffff16637cd7090d8b3387426001886040518763ffffffff167c0100000000000000000000000000000000000000000000000000000000028152600401808781526020018673ffffffffffffffffffffffffffffffffffffffff1681526020018581526020018481526020018381526020018281526020019650505050505050602060405180830381600087803b15801561127e57600080fd5b505af1158015611292573d6000803e3d6000fd5b505050506040513d60208110156112a857600080fd5b810190808051906020019092919050505090505b6000600260009054906101000a900473ffffffffffffffffffffffffffffffffffffffff1673ffffffffffffffffffffffffffffffffffffffff16637cd7090d8c8e8d426001896040518763ffffffff167c0100000000000000000000000000000000000000000000000000000000028152600401808781526020018673ffffffffffffffffffffffffffffffffffffffff1681526020018581526020018481526020018381526020018281526020019650505050505050602060405180830381600087803b15801561138e57600080fd5b505af11580156113a2573d6000803e3d6000fd5b505050506040513d60208110156113b857600080fd5b810190808051906020019092919050505090508a8c73ffffffffffffffffffffffffffffffffffffffff163373ffffffffffffffffffffffffffffffffffffffff167fcd15a857f6a3e3d22a83b018e317e70893d0ce90e25b487189bf396c1591673c8d42888888604051808681526020018581526020018481526020018381526020018281526020019550505050505060405180910390a482828298509850985050505050505093509350939050565b6000808686868686604051602001808673ffffffffffffffffffffffffffffffffffffffff1681526020018573ffffffffffffffffffffffffffffffffffffffff168152602001848152602001838152602001828152602001955050505050506040516020818303038152906040528051906020012090506000600102600160008381526020019081526020016000206000015414611553576040517f08c379a00000000000000000000000000000000000000000000000000000000081526004018080602001828103825260298152602001806118d16029913960400191505060405180910390fd5b806001600083815260200190815260200160002060000181905550866001600083815260200190815260200160002060010160006101000a81548173ffffffffffffffffffffffffffffffffffffffff021916908373ffffffffffffffffffffffffffffffffffffffff160217905550856001600083815260200190815260200160002060020160006101000a81548173ffffffffffffffffffffffffffffffffffffffff021916908373ffffffffffffffffffffffffffffffffffffffff1602179055508460016000838152602001908152602001600020600301819055508360016000838152602001908152602001600020600401819055508260016000838152602001908152602001600020600501819055508091505095945050505050565b6000818303905092915050565b6000808686868686604051602001808673ffffffffffffffffffffffffffffffffffffffff1681526020018573ffffffffffffffffffffffffffffffffffffffff168152602001848152602001838152602001828152602001955050505050506040516020818303038152906040528051906020012090506000600102600080838152602001908152602001600020600001541461176c576040517f08c379a000000000000000000000000000000000000000000000000000000000815260040180806020018281038252602581526020018061188a6025913960400191505060405180910390fd5b80600080838152602001908152602001600020600001819055508660008083815260200190815260200160002060010160006101000a81548173ffffffffffffffffffffffffffffffffffffffff021916908373ffffffffffffffffffffffffffffffffffffffff1602179055508560008083815260200190815260200160002060020160006101000a81548173ffffffffffffffffffffffffffffffffffffffff021916908373ffffffffffffffffffffffffffffffffffffffff160217905550846000808381526020019081526020016000206003018190555083600080838152602001908152602001600020600401819055508260008083815260200190815260200160002060050181905550809150509594505050505056fe5468652072617720617373657420747261646520696420616c7265616479206578697374735468652070726f6475637420617373657420686173206265656e2064656c657465645468652070726f6475637420617373657420747261646520696420616c726561647920657869737473a2646970667358221220e5d0926a3e04ac166a27ad85e5316630751c39bc14624f9b55671b5dd004bed464736f6c63430007060033",
  "immutableReferences": {},
  "source": "// SPDX-License-Identifier: MIT\r\npragma solidity >=0.4.22 <0.9.0;\r\n\r\nimport \"./lib/math/SafeMath.sol\";\r\nimport \"./SteelAssetManager.sol\";\r\n\r\n/**\r\n * @title Steel Asset Trade Centre\r\n * @dev For Trade of Raw Steel, Steel Product Asset\r\n */\r\ncontract SteelTradeManager {\r\n    \r\n    // library\r\n    using SafeMath for uint256;\r\n    \r\n    // Raw Steel Asset Trade Information\r\n    struct SteelRawTrade {\r\n        // Trade String\r\n        bytes32 id;\r\n        // From Public Key\r\n        address fromKey;\r\n        // To Public Key\r\n        address toKey;\r\n        // Raw Steel Asset String\r\n        bytes32 rawAssetId;\r\n        // TradeAmount/Weight\r\n        uint num;\r\n        // Trade Date\r\n        uint date; \r\n    }\r\n    \r\n    // Steel Product Asset Trade Information\r\n    struct SteelProductTrade {\r\n        // Trade String\r\n        bytes32 id;\r\n        // From Public Key\r\n        address fromKey;\r\n        // To Public Key\r\n        address toKey;\r\n        // Steel Asset String\r\n        bytes32 productAssetId;\r\n        // TradeAmount/Weight\r\n        uint num;\r\n        // Trade Date\r\n        uint date;\r\n    }\r\n\r\n    // Raw Steel Asset Trade List\r\n    mapping (bytes32 => SteelRawTrade) rawTradeList;\r\n    // Steel Product Asset  Trade List\r\n    mapping (bytes32 => SteelProductTrade) productTradeList;\r\n\r\n    // Rely on Steel Asset Registration Centre\r\n    SteelAssetManager public steelAssetManager;\r\n\r\n    // Constructor \r\n    constructor(address _steelAssetManager) {\r\n        steelAssetManager = SteelAssetManager(_steelAssetManager);\r\n    }\r\n\r\n    // event for EVM logging\r\n    event SteelRawAssetTrade(address indexed fromKey, address indexed toKey, bytes32 indexed rawAssetId, uint num, uint date, bytes32 tradeId, bytes32 fromId, bytes32 toId);\r\n    event SteelProductAssetTrade(address indexed fromKey, address indexed toKey, bytes32 indexed productAssetId, uint num, uint date, bytes32 tradeId, bytes32 fromId, bytes32 toId);\r\n    \r\n    /**\r\n     * @dev Trade Raw Steel Asset\r\n     * @param toKey To Public Key\r\n     * @param rawAssetId Raw Steel Asset String\r\n     * @param num Amount/Weight\r\n     * @return tradeId Trade String\r\n     * @return fromId From Raw Steel Asset String（Charge）\r\n     * @return toId To Raw Steel Asset String（Trade Create）\r\n     */\r\n    function tradeSteelRawAsset(address toKey, bytes32 rawAssetId, uint num) public returns (bytes32, bytes32, bytes32) {\r\n        require(toKey != address(0), \"Trade to the zero address\");\r\n        require(num > 0, \"The num must be greater than 0\");\r\n        (,address key,,,,,uint balance,,,,bool isDel,) = steelAssetManager.getSteelRawAsset(rawAssetId);\r\n        require(key == msg.sender, \"The sender has no ownership\");\r\n        require(!isDel, \"The raw asset has been deleted\");\r\n        // Create Raw Steel Trade Information\r\n        bytes32 tradeId = _createSteelRawTrade(msg.sender, toKey, rawAssetId, num, block.timestamp);\r\n        // Burn To Raw Steel Registration Information\r\n        steelAssetManager.deleteSteelRawAsset(rawAssetId, block.timestamp);\r\n        // Create From Raw Steel Charge Information\r\n        balance = balance.sub(num);\r\n        bytes32 fromId = bytes32(0);\r\n        if(balance > 0) {\r\n            fromId = steelAssetManager.createSteelRawAssetByManager(rawAssetId, msg.sender, balance, block.timestamp, 1, tradeId);\r\n        }\r\n        // Create To Raw Steel Charge Information\r\n        bytes32 toId = steelAssetManager.createSteelRawAssetByManager(rawAssetId, toKey, num, block.timestamp, 1, tradeId);\r\n        emit SteelRawAssetTrade(msg.sender, toKey, rawAssetId, num, block.timestamp, tradeId, fromId, toId);\r\n        return(tradeId, fromId, toId);\r\n    }\r\n\r\n    /**\r\n     * @dev Trade Steel Product Asset\r\n     * @param toKey To Public Key\r\n     * @param productAssetId Steel Asset String\r\n     * @param num Amount\r\n     * @return tradeId Trade String\r\n     * @return fromId From Steel Asset String（Charge）\r\n     * @return toId From Steel Asset String（Trade Create）\r\n     */\r\n    function tradeSteelProductAsset(address toKey, bytes32 productAssetId, uint num) public returns (bytes32, bytes32, bytes32) {\r\n        require(toKey != address(0), \"Trade to the zero address\");\r\n        require(num > 0, \"The num must be greater than 0\");\r\n        (,address key,,,uint balance,,,,bool isDel,) = steelAssetManager.getSteelProductAsset(productAssetId);\r\n        require(key == msg.sender, \"The sender has no ownership\");\r\n        require(!isDel, \"The product asset has been deleted\");\r\n        // Create Steel Product Trade Information\r\n        bytes32 tradeId = _createSteelProductTrade(msg.sender, toKey, productAssetId, num, block.timestamp);\r\n        // Burn From Steel Product Asset Registration Information\r\n        steelAssetManager.deleteSteelProductAsset(productAssetId, block.timestamp);\r\n        // Create From Steel Product Charge Information\r\n        balance = balance.sub(num);\r\n        bytes32 fromId = bytes32(0);\r\n        if(balance > 0) {\r\n            fromId = steelAssetManager.createSteelProductAssetByManager(productAssetId, msg.sender, balance, block.timestamp, 1, tradeId);\r\n        }\r\n        // Create To Steel Product Registration Information\r\n        bytes32 toId = steelAssetManager.createSteelProductAssetByManager(productAssetId, toKey, num, block.timestamp, 1, tradeId);\r\n        emit SteelProductAssetTrade(msg.sender, toKey, productAssetId, num, block.timestamp, tradeId, fromId, toId);\r\n        return(tradeId, fromId, toId);\r\n    }\r\n\r\n    /**\r\n     * @dev Get Raw Steel Asset Trade Information\r\n     * @param id Raw Steel Asset Trade String\r\n     * @return id Raw Steel Asset Trade String\r\n     * @return fromKey From Public Key\r\n     * @return toKey To Public Key\r\n     * @return rawAssetId Raw Steel Asset String\r\n     * @return num TradeAmount/Weight\r\n     * @return date Trade Date\r\n     */\r\n    function getSteelRawTrade(bytes32 id) public view returns (bytes32, address, address, bytes32, uint, uint) {\r\n        SteelRawTrade memory trade = rawTradeList[id];\r\n        return(trade.id, trade.fromKey, trade.toKey, trade.rawAssetId, trade.num, trade.date);\r\n    }\r\n\r\n    /**\r\n     * @dev Get Steel Product Asset Trade Information\r\n     * @param id Steel Product Asset Trade String\r\n     * @return id Steel Product Asset Trade String\r\n     * @return fromKey From Public Key\r\n     * @return toKey To Public Key\r\n     * @return productAssetId Steel Asset String\r\n     * @return num TradeAmount\r\n     * @return date Trade Date\r\n     */\r\n    function getSteelProductTrade(bytes32 id) public view returns (bytes32, address, address, bytes32, uint, uint) {\r\n        SteelProductTrade memory trade = productTradeList[id];\r\n        return(trade.id, trade.fromKey, trade.toKey, trade.productAssetId, trade.num, trade.date);\r\n    }\r\n\r\n    /**\r\n     * @dev Create Raw Steel Asset Trade Information（Internal Call）\r\n     * @param fromKey From Public Key\r\n     * @param toKey To Public Key\r\n     * @param rawAssetId Raw Steel Asset String\r\n     * @param num TradeAmount/Weight\r\n     * @param date Trade Date\r\n     * @return id Raw Steel Asset Trade String\r\n     */\r\n    function _createSteelRawTrade(address fromKey, address toKey, bytes32 rawAssetId, uint num, uint date) internal returns (bytes32) {\r\n        bytes32 id = keccak256(abi.encode(fromKey, toKey, rawAssetId, num, date));\r\n        require(rawTradeList[id].id == bytes32(0), \"The raw asset trade id already exists\");\r\n        rawTradeList[id].id = id;\r\n        rawTradeList[id].fromKey = fromKey;\r\n        rawTradeList[id].toKey = toKey;\r\n        rawTradeList[id].rawAssetId = rawAssetId;\r\n        rawTradeList[id].num = num;\r\n        rawTradeList[id].date = date;\r\n        return id;\r\n    }\r\n\r\n    /**\r\n     * @dev Create Steel Asset Trade Information（Internal Call）\r\n     * @param fromKey From Public Key\r\n     * @param toKey To Public Key\r\n     * @param productAssetId Steel Asset String\r\n     * @param num TradeAmount\r\n     * @param date Trade Date\r\n     * @return id Steel Product Asset Trade String\r\n     */\r\n    function _createSteelProductTrade(address fromKey, address toKey, bytes32 productAssetId, uint num, uint date) internal returns (bytes32) {\r\n        bytes32 id = keccak256(abi.encode(fromKey, toKey, productAssetId, num, date));\r\n        require(productTradeList[id].id == bytes32(0), \"The product asset trade id already exists\");\r\n        productTradeList[id].id = id;\r\n        productTradeList[id].fromKey = fromKey;\r\n        productTradeList[id].toKey = toKey;\r\n        productTradeList[id].productAssetId = productAssetId;\r\n        productTradeList[id].num = num;\r\n        productTradeList[id].date = date;\r\n        return id;\r\n    }\r\n\r\n}",
  "sourcePath": "C:/Users/davy/Desktop/steel-asset-contract/contracts/SteelTradeManager.sol",
  "compiler": {
    "name": "solc",
    "version": "0.7.6+commit.7338295f.Emscripten.clang"
  },
  "schemaVersion": "3.4.0",
  "updatedAt": "2022-09-09T04:01:55.149Z",
  "devdoc": {
    "details": "For Trade of Raw Steel, Steel Product Asset",
    "kind": "dev",
    "methods": {
      "getSteelProductTrade(bytes32)": {
        "details": "Get Steel Product Asset Trade Information",
        "params": {
          "id": "Steel Product Asset Trade String"
        },
        "returns": {
          "_0": "id Steel Product Asset Trade String",
          "_1": "fromKey From Public Key",
          "_2": "toKey To Public Key",
          "_3": "productAssetId Steel Asset String",
          "_4": "num TradeAmount",
          "_5": "date Trade Date"
        }
      },
      "getSteelRawTrade(bytes32)": {
        "details": "Get Raw Steel Asset Trade Information",
        "params": {
          "id": "Raw Steel Asset Trade String"
        },
        "returns": {
          "_0": "id Raw Steel Asset Trade String",
          "_1": "fromKey From Public Key",
          "_2": "toKey To Public Key",
          "_3": "rawAssetId Raw Steel Asset String",
          "_4": "num TradeAmount/Weight",
          "_5": "date Trade Date"
        }
      },
      "tradeSteelProductAsset(address,bytes32,uint256)": {
        "details": "Trade Steel Product Asset",
        "params": {
          "num": "Amount",
          "productAssetId": "Steel Asset String",
          "toKey": "To Public Key"
        },
        "returns": {
          "_0": "tradeId Trade String",
          "_1": "fromId From Steel Asset String（Charge）",
          "_2": "toId From Steel Asset String（Trade Create）"
        }
      },
      "tradeSteelRawAsset(address,bytes32,uint256)": {
        "details": "Trade Raw Steel Asset",
        "params": {
          "num": "Amount/Weight",
          "rawAssetId": "Raw Steel Asset String",
          "toKey": "To Public Key"
        },
        "returns": {
          "_0": "tradeId Trade String",
          "_1": "fromId From Raw Steel Asset String（Charge）",
          "_2": "toId To Raw Steel Asset String（Trade Create）"
        }
      }
    },
    "title": "Steel Asset Trade Centre",
    "version": 1
  },
  "userdoc": {
    "kind": "user",
    "methods": {},
    "version": 1
  }
}