{
  "contractName": "SteelArchiveManager",
  "abi": [
    {
      "anonymous": false,
      "inputs": [
        {
          "indexed": true,
          "internalType": "address",
          "name": "previousOwner",
          "type": "address"
        },
        {
          "indexed": true,
          "internalType": "address",
          "name": "newOwner",
          "type": "address"
        }
      ],
      "name": "OwnershipTransferred",
      "type": "event"
    },
    {
      "anonymous": false,
      "inputs": [
        {
          "indexed": true,
          "internalType": "address",
          "name": "key",
          "type": "address"
        },
        {
          "indexed": true,
          "internalType": "bytes32",
          "name": "code",
          "type": "bytes32"
        },
        {
          "indexed": true,
          "internalType": "bytes32",
          "name": "id",
          "type": "bytes32"
        },
        {
          "indexed": false,
          "internalType": "string",
          "name": "name",
          "type": "string"
        },
        {
          "indexed": false,
          "internalType": "bytes32",
          "name": "productArvId",
          "type": "bytes32"
        },
        {
          "indexed": false,
          "internalType": "bytes32[]",
          "name": "rawArvIdList",
          "type": "bytes32[]"
        },
        {
          "indexed": false,
          "internalType": "uint256[]",
          "name": "rawArvNumList",
          "type": "uint256[]"
        },
        {
          "indexed": false,
          "internalType": "bytes32[]",
          "name": "productArvIdList",
          "type": "bytes32[]"
        },
        {
          "indexed": false,
          "internalType": "uint256[]",
          "name": "productArvNumList",
          "type": "uint256[]"
        },
        {
          "indexed": false,
          "internalType": "uint256",
          "name": "outputNum",
          "type": "uint256"
        },
        {
          "indexed": false,
          "internalType": "uint256",
          "name": "timestamp",
          "type": "uint256"
        }
      ],
      "name": "SteelProcessArchiveCreated",
      "type": "event"
    },
    {
      "anonymous": false,
      "inputs": [
        {
          "indexed": true,
          "internalType": "address",
          "name": "key",
          "type": "address"
        },
        {
          "indexed": true,
          "internalType": "bytes32",
          "name": "code",
          "type": "bytes32"
        },
        {
          "indexed": true,
          "internalType": "bytes32",
          "name": "id",
          "type": "bytes32"
        },
        {
          "indexed": false,
          "internalType": "string",
          "name": "name",
          "type": "string"
        },
        {
          "indexed": false,
          "internalType": "uint256",
          "name": "weight",
          "type": "uint256"
        },
        {
          "indexed": false,
          "internalType": "uint256",
          "name": "yieldRate",
          "type": "uint256"
        },
        {
          "indexed": false,
          "internalType": "uint256",
          "name": "timestamp",
          "type": "uint256"
        }
      ],
      "name": "SteelProductArchiveCreated",
      "type": "event"
    },
    {
      "anonymous": false,
      "inputs": [
        {
          "indexed": true,
          "internalType": "address",
          "name": "key",
          "type": "address"
        },
        {
          "indexed": true,
          "internalType": "bytes32",
          "name": "code",
          "type": "bytes32"
        },
        {
          "indexed": true,
          "internalType": "bytes32",
          "name": "id",
          "type": "bytes32"
        },
        {
          "indexed": false,
          "internalType": "string",
          "name": "specs",
          "type": "string"
        },
        {
          "indexed": false,
          "internalType": "string",
          "name": "ingredients",
          "type": "string"
        },
        {
          "indexed": false,
          "internalType": "uint256",
          "name": "timestamp",
          "type": "uint256"
        }
      ],
      "name": "SteelRawArchiveCreated",
      "type": "event"
    },
    {
      "inputs": [],
      "name": "owner",
      "outputs": [
        {
          "internalType": "address",
          "name": "",
          "type": "address"
        }
      ],
      "stateMutability": "view",
      "type": "function"
    },
    {
      "inputs": [],
      "name": "renounceOwnership",
      "outputs": [],
      "stateMutability": "nonpayable",
      "type": "function"
    },
    {
      "inputs": [
        {
          "internalType": "address",
          "name": "newOwner",
          "type": "address"
        }
      ],
      "name": "transferOwnership",
      "outputs": [],
      "stateMutability": "nonpayable",
      "type": "function"
    },
    {
      "inputs": [
        {
          "internalType": "address",
          "name": "key",
          "type": "address"
        },
        {
          "internalType": "bytes32",
          "name": "code",
          "type": "bytes32"
        },
        {
          "internalType": "string",
          "name": "specs",
          "type": "string"
        },
        {
          "internalType": "string",
          "name": "ingredients",
          "type": "string"
        }
      ],
      "name": "createSteelRawArchive",
      "outputs": [
        {
          "internalType": "bytes32",
          "name": "",
          "type": "bytes32"
        }
      ],
      "stateMutability": "nonpayable",
      "type": "function"
    },
    {
      "inputs": [
        {
          "internalType": "address",
          "name": "key",
          "type": "address"
        },
        {
          "internalType": "bytes32",
          "name": "code",
          "type": "bytes32"
        },
        {
          "internalType": "string",
          "name": "name",
          "type": "string"
        },
        {
          "internalType": "uint256",
          "name": "weight",
          "type": "uint256"
        },
        {
          "internalType": "uint256",
          "name": "yieldRate",
          "type": "uint256"
        }
      ],
      "name": "createSteelProductArchive",
      "outputs": [
        {
          "internalType": "bytes32",
          "name": "",
          "type": "bytes32"
        }
      ],
      "stateMutability": "nonpayable",
      "type": "function"
    },
    {
      "inputs": [
        {
          "internalType": "address",
          "name": "key",
          "type": "address"
        },
        {
          "internalType": "bytes32",
          "name": "code",
          "type": "bytes32"
        },
        {
          "internalType": "string",
          "name": "name",
          "type": "string"
        },
        {
          "internalType": "bytes32",
          "name": "productArvId",
          "type": "bytes32"
        },
        {
          "internalType": "bytes32[]",
          "name": "rawArvIdList",
          "type": "bytes32[]"
        },
        {
          "internalType": "uint256[]",
          "name": "rawArvNumList",
          "type": "uint256[]"
        },
        {
          "internalType": "bytes32[]",
          "name": "productArvIdList",
          "type": "bytes32[]"
        },
        {
          "internalType": "uint256[]",
          "name": "productArvNumList",
          "type": "uint256[]"
        },
        {
          "internalType": "uint256",
          "name": "outputNum",
          "type": "uint256"
        }
      ],
      "name": "createSteelProcessArchive",
      "outputs": [
        {
          "internalType": "bytes32",
          "name": "",
          "type": "bytes32"
        }
      ],
      "stateMutability": "nonpayable",
      "type": "function"
    },
    {
      "inputs": [
        {
          "internalType": "bytes32",
          "name": "id",
          "type": "bytes32"
        }
      ],
      "name": "getSteelRawArchive",
      "outputs": [
        {
          "internalType": "bytes32",
          "name": "",
          "type": "bytes32"
        },
        {
          "internalType": "address",
          "name": "",
          "type": "address"
        },
        {
          "internalType": "bytes32",
          "name": "",
          "type": "bytes32"
        },
        {
          "internalType": "string",
          "name": "",
          "type": "string"
        },
        {
          "internalType": "string",
          "name": "",
          "type": "string"
        }
      ],
      "stateMutability": "view",
      "type": "function"
    },
    {
      "inputs": [
        {
          "internalType": "bytes32",
          "name": "id",
          "type": "bytes32"
        }
      ],
      "name": "getSteelProductArchive",
      "outputs": [
        {
          "internalType": "bytes32",
          "name": "",
          "type": "bytes32"
        },
        {
          "internalType": "address",
          "name": "",
          "type": "address"
        },
        {
          "internalType": "bytes32",
          "name": "",
          "type": "bytes32"
        },
        {
          "internalType": "string",
          "name": "",
          "type": "string"
        },
        {
          "internalType": "uint256",
          "name": "",
          "type": "uint256"
        },
        {
          "internalType": "uint256",
          "name": "",
          "type": "uint256"
        }
      ],
      "stateMutability": "view",
      "type": "function"
    },
    {
      "inputs": [
        {
          "internalType": "bytes32",
          "name": "id",
          "type": "bytes32"
        }
      ],
      "name": "getSteelProcessArchive",
      "outputs": [
        {
          "internalType": "bytes32",
          "name": "",
          "type": "bytes32"
        },
        {
          "internalType": "address",
          "name": "",
          "type": "address"
        },
        {
          "internalType": "bytes32",
          "name": "",
          "type": "bytes32"
        },
        {
          "internalType": "string",
          "name": "",
          "type": "string"
        },
        {
          "internalType": "bytes32",
          "name": "",
          "type": "bytes32"
        },
        {
          "internalType": "bytes32[]",
          "name": "",
          "type": "bytes32[]"
        },
        {
          "internalType": "uint256[]",
          "name": "",
          "type": "uint256[]"
        },
        {
          "internalType": "bytes32[]",
          "name": "",
          "type": "bytes32[]"
        },
        {
          "internalType": "uint256[]",
          "name": "",
          "type": "uint256[]"
        },
        {
          "internalType": "uint256",
          "name": "",
          "type": "uint256"
        }
      ],
      "stateMutability": "view",
      "type": "function"
    }
  ],
  "bytecode": "0x60806040523480156200001157600080fd5b50620000446200002f6200004a640100000000026401000000009004565b62000052640100000000026401000000009004565b62000116565b600033905090565b60008060009054906101000a900473ffffffffffffffffffffffffffffffffffffffff169050816000806101000a81548173ffffffffffffffffffffffffffffffffffffffff021916908373ffffffffffffffffffffffffffffffffffffffff1602179055508173ffffffffffffffffffffffffffffffffffffffff168173ffffffffffffffffffffffffffffffffffffffff167f8be0079c531659141344cd1fd0a4f28419497f9722a3daafe3b4186f6b6457e060405160405180910390a35050565b6126ee80620001266000396000f3fe608060405234801561001057600080fd5b50600436106100b0576000357c010000000000000000000000000000000000000000000000000000000090048063715018a611610083578063715018a6146107905780638da5cb5b1461079a57806391d92510146107ce578063c9adafa4146109ce578063f2fde38b14610b0c576100b0565b806317a8bf6a146100b557806325f2675a146101c25780632e113440146102a2578063438d1bc014610600575b600080fd5b6101ac600480360360a08110156100cb57600080fd5b81019080803573ffffffffffffffffffffffffffffffffffffffff169060200190929190803590602001909291908035906020019064010000000081111561011257600080fd5b82018360208201111561012457600080fd5b8035906020019184600183028401116401000000008311171561014657600080fd5b91908080601f016020809104026020016040519081016040528093929190818152602001838380828437600081840152601f19601f8201169050808301925050505050505091929192908035906020019092919080359060200190929190505050610b50565b6040518082815260200191505060405180910390f35b6101ee600480360360208110156101d857600080fd5b8101908080359060200190929190505050610f30565b604051808781526020018673ffffffffffffffffffffffffffffffffffffffff16815260200185815260200180602001848152602001838152602001828103825285818151815260200191508051906020019080838360005b83811015610262578082015181840152602081019050610247565b50505050905090810190601f16801561028f5780820380516001836020036101000a031916815260200191505b5097505050505050505060405180910390f35b6105ea60048036036101208110156102b957600080fd5b81019080803573ffffffffffffffffffffffffffffffffffffffff169060200190929190803590602001909291908035906020019064010000000081111561030057600080fd5b82018360208201111561031257600080fd5b8035906020019184600183028401116401000000008311171561033457600080fd5b91908080601f016020809104026020016040519081016040528093929190818152602001838380828437600081840152601f19601f82011690508083019250505050505050919291929080359060200190929190803590602001906401000000008111156103a157600080fd5b8201836020820111156103b357600080fd5b803590602001918460208302840111640100000000831117156103d557600080fd5b919080806020026020016040519081016040528093929190818152602001838360200280828437600081840152601f19601f8201169050808301925050505050505091929192908035906020019064010000000081111561043557600080fd5b82018360208201111561044757600080fd5b8035906020019184602083028401116401000000008311171561046957600080fd5b919080806020026020016040519081016040528093929190818152602001838360200280828437600081840152601f19601f820116905080830192505050505050509192919290803590602001906401000000008111156104c957600080fd5b8201836020820111156104db57600080fd5b803590602001918460208302840111640100000000831117156104fd57600080fd5b919080806020026020016040519081016040528093929190818152602001838360200280828437600081840152601f19601f8201169050808301925050505050505091929192908035906020019064010000000081111561055d57600080fd5b82018360208201111561056f57600080fd5b8035906020019184602083028401116401000000008311171561059157600080fd5b919080806020026020016040519081016040528093929190818152602001838360200280828437600081840152601f19601f820116905080830192505050505050509192919290803590602001909291905050506110b0565b6040518082815260200191505060405180910390f35b61077a6004803603608081101561061657600080fd5b81019080803573ffffffffffffffffffffffffffffffffffffffff169060200190929190803590602001909291908035906020019064010000000081111561065d57600080fd5b82018360208201111561066f57600080fd5b8035906020019184600183028401116401000000008311171561069157600080fd5b91908080601f016020809104026020016040519081016040528093929190818152602001838380828437600081840152601f19601f820116905080830192505050505050509192919290803590602001906401000000008111156106f457600080fd5b82018360208201111561070657600080fd5b8035906020019184600183028401116401000000008311171561072857600080fd5b91908080601f016020809104026020016040519081016040528093929190818152602001838380828437600081840152601f19601f82011690508083019250505050505050919291929050505061183c565b6040518082815260200191505060405180910390f35b610798611cca565b005b6107a2611d85565b604051808273ffffffffffffffffffffffffffffffffffffffff16815260200191505060405180910390f35b6107fa600480360360208110156107e457600080fd5b8101908080359060200190929190505050611dae565b604051808b81526020018a73ffffffffffffffffffffffffffffffffffffffff168152602001898152602001806020018881526020018060200180602001806020018060200187815260200186810386528d818151815260200191508051906020019080838360005b8381101561087e578082015181840152602081019050610863565b50505050905090810190601f1680156108ab5780820380516001836020036101000a031916815260200191505b5086810385528b818151815260200191508051906020019060200280838360005b838110156108e75780820151818401526020810190506108cc565b5050505090500186810384528a818151815260200191508051906020019060200280838360005b8381101561092957808201518184015260208101905061090e565b50505050905001868103835289818151815260200191508051906020019060200280838360005b8381101561096b578082015181840152602081019050610950565b50505050905001868103825288818151815260200191508051906020019060200280838360005b838110156109ad578082015181840152602081019050610992565b505050509050019f5050505050505050505050505050505060405180910390f35b6109fa600480360360208110156109e457600080fd5b81019080803590602001909291905050506120b7565b604051808681526020018573ffffffffffffffffffffffffffffffffffffffff1681526020018481526020018060200180602001838103835285818151815260200191508051906020019080838360005b83811015610a66578082015181840152602081019050610a4b565b50505050905090810190601f168015610a935780820380516001836020036101000a031916815260200191505b50838103825284818151815260200191508051906020019080838360005b83811015610acc578082015181840152602081019050610ab1565b50505050905090810190601f168015610af95780820380516001836020036101000a031916815260200191505b5097505050505050505060405180910390f35b610b4e60048036036020811015610b2257600080fd5b81019080803573ffffffffffffffffffffffffffffffffffffffff1690602001909291905050506122bc565b005b6000610b5a6123fd565b73ffffffffffffffffffffffffffffffffffffffff16610b78611d85565b73ffffffffffffffffffffffffffffffffffffffff1614610c01576040517f08c379a00000000000000000000000000000000000000000000000000000000081526004018080602001828103825260208152602001807f4f776e61626c653a2063616c6c6572206973206e6f7420746865206f776e657281525060200191505060405180910390fd5b600073ffffffffffffffffffffffffffffffffffffffff168673ffffffffffffffffffffffffffffffffffffffff161415610ca4576040517f08c379a000000000000000000000000000000000000000000000000000000000815260040180806020018281038252601f8152602001807f546865206b65792063616e206e6f74206265207a65726f20616464726573730081525060200191505060405180910390fd5b60008686868686604051602001808673ffffffffffffffffffffffffffffffffffffffff16815260200185815260200180602001848152602001838152602001828103825285818151815260200191508051906020019080838360005b83811015610d1c578082015181840152602081019050610d01565b50505050905090810190601f168015610d495780820380516001836020036101000a031916815260200191505b509650505050505050604051602081830303815290604052805190602001209050806002600083815260200190815260200160002060000181905550866002600083815260200190815260200160002060010160006101000a81548173ffffffffffffffffffffffffffffffffffffffff021916908373ffffffffffffffffffffffffffffffffffffffff16021790555085600260008381526020019081526020016000206002018190555084600260008381526020019081526020016000206003019080519060200190610e1f9291906124c9565b5083600260008381526020019081526020016000206004018190555082600260008381526020019081526020016000206005018190555080868873ffffffffffffffffffffffffffffffffffffffff167f3dd40a2ee1324e39356fe0d9afd83401ffd0160b197985182ed9a277e7807438888888426040518080602001858152602001848152602001838152602001828103825286818151815260200191508051906020019080838360005b83811015610ee6578082015181840152602081019050610ecb565b50505050905090810190601f168015610f135780820380516001836020036101000a031916815260200191505b509550505050505060405180910390a48091505095945050505050565b600080600060606000806000600260008981526020019081526020016000206040518060c0016040529081600082015481526020016001820160009054906101000a900473ffffffffffffffffffffffffffffffffffffffff1673ffffffffffffffffffffffffffffffffffffffff1673ffffffffffffffffffffffffffffffffffffffff16815260200160028201548152602001600382018054600181600116156101000203166002900480601f01602080910402602001604051908101604052809291908181526020018280546001816001161561010002031660029004801561105d5780601f106110325761010080835404028352916020019161105d565b820191906000526020600020905b81548152906001019060200180831161104057829003601f168201915b50505050508152602001600482015481526020016005820154815250509050806000015181602001518260400151836060015184608001518560a001519650965096509650965096505091939550919395565b60006110ba6123fd565b73ffffffffffffffffffffffffffffffffffffffff166110d8611d85565b73ffffffffffffffffffffffffffffffffffffffff1614611161576040517f08c379a00000000000000000000000000000000000000000000000000000000081526004018080602001828103825260208152602001807f4f776e61626c653a2063616c6c6572206973206e6f7420746865206f776e657281525060200191505060405180910390fd5b600073ffffffffffffffffffffffffffffffffffffffff168a73ffffffffffffffffffffffffffffffffffffffff161415611204576040517f08c379a000000000000000000000000000000000000000000000000000000000815260040180806020018281038252601f8152602001807f546865206b65792063616e206e6f74206265207a65726f20616464726573730081525060200191505060405180910390fd5b845186511461125e576040517f08c379a00000000000000000000000000000000000000000000000000000000081526004018080602001828103825260328152602001806126526032913960400191505060405180910390fd5b82518451146112b8576040517f08c379a00000000000000000000000000000000000000000000000000000000081526004018080602001828103825260358152602001806126846035913960400191505060405180910390fd5b60008a8a8a8a8a8a8a8a8a604051602001808a73ffffffffffffffffffffffffffffffffffffffff168152602001898152602001806020018881526020018060200180602001806020018060200187815260200186810386528d818151815260200191508051906020019080838360005b83811015611344578082015181840152602081019050611329565b50505050905090810190601f1680156113715780820380516001836020036101000a031916815260200191505b5086810385528b818151815260200191508051906020019060200280838360005b838110156113ad578082015181840152602081019050611392565b5050505090500186810384528a818151815260200191508051906020019060200280838360005b838110156113ef5780820151818401526020810190506113d4565b50505050905001868103835289818151815260200191508051906020019060200280838360005b83811015611431578082015181840152602081019050611416565b50505050905001868103825288818151815260200191508051906020019060200280838360005b83811015611473578082015181840152602081019050611458565b505050509050019e5050505050505050505050505050506040516020818303038152906040528051906020012090508060036000838152602001908152602001600020600001819055508a6003600083815260200190815260200160002060010160006101000a81548173ffffffffffffffffffffffffffffffffffffffff021916908373ffffffffffffffffffffffffffffffffffffffff160217905550896003600083815260200190815260200160002060020181905550886003600083815260200190815260200160002060030190805190602001906115579291906124c9565b508760036000838152602001908152602001600020600401819055508660036000838152602001908152602001600020600501908051906020019061159d929190612557565b50856003600083815260200190815260200160002060060190805190602001906115c89291906125a4565b50846003600083815260200190815260200160002060070190805190602001906115f3929190612557565b508360036000838152602001908152602001600020600801908051906020019061161e9291906125a4565b50826003600083815260200190815260200160002060090181905550808a8c73ffffffffffffffffffffffffffffffffffffffff167f85ce89923b2d54177f05f228f359022e399f60eaab5cd5539299c2efe65e51dd8c8c8c8c8c8c8c4260405180806020018981526020018060200180602001806020018060200188815260200187815260200186810386528e818151815260200191508051906020019080838360005b838110156116de5780820151818401526020810190506116c3565b50505050905090810190601f16801561170b5780820380516001836020036101000a031916815260200191505b5086810385528c818151815260200191508051906020019060200280838360005b8381101561174757808201518184015260208101905061172c565b5050505090500186810384528b818151815260200191508051906020019060200280838360005b8381101561178957808201518184015260208101905061176e565b5050505090500186810383528a818151815260200191508051906020019060200280838360005b838110156117cb5780820151818401526020810190506117b0565b50505050905001868103825289818151815260200191508051906020019060200280838360005b8381101561180d5780820151818401526020810190506117f2565b505050509050019d505050505050505050505050505060405180910390a4809150509998505050505050505050565b60006118466123fd565b73ffffffffffffffffffffffffffffffffffffffff16611864611d85565b73ffffffffffffffffffffffffffffffffffffffff16146118ed576040517f08c379a00000000000000000000000000000000000000000000000000000000081526004018080602001828103825260208152602001807f4f776e61626c653a2063616c6c6572206973206e6f7420746865206f776e657281525060200191505060405180910390fd5b600073ffffffffffffffffffffffffffffffffffffffff168573ffffffffffffffffffffffffffffffffffffffff161415611990576040517f08c379a000000000000000000000000000000000000000000000000000000000815260040180806020018281038252601f8152602001807f546865206b65792063616e206e6f74206265207a65726f20616464726573730081525060200191505060405180910390fd5b600085858585604051602001808573ffffffffffffffffffffffffffffffffffffffff1681526020018481526020018060200180602001838103835285818151815260200191508051906020019080838360005b838110156119ff5780820151818401526020810190506119e4565b50505050905090810190601f168015611a2c5780820380516001836020036101000a031916815260200191505b50838103825284818151815260200191508051906020019080838360005b83811015611a65578082015181840152602081019050611a4a565b50505050905090810190601f168015611a925780820380516001836020036101000a031916815260200191505b509650505050505050604051602081830303815290604052805190602001209050806001600083815260200190815260200160002060000181905550856001600083815260200190815260200160002060010160006101000a81548173ffffffffffffffffffffffffffffffffffffffff021916908373ffffffffffffffffffffffffffffffffffffffff16021790555084600160008381526020019081526020016000206002018190555083600160008381526020019081526020016000206003019080519060200190611b689291906124c9565b5082600160008381526020019081526020016000206004019080519060200190611b939291906124c9565b5080858773ffffffffffffffffffffffffffffffffffffffff167fef0c9545bcfe758d4910e1a78c30dcdb0a7898175ece5f65174e3e792e97ceb5878742604051808060200180602001848152602001838103835286818151815260200191508051906020019080838360005b83811015611c1b578082015181840152602081019050611c00565b50505050905090810190601f168015611c485780820380516001836020036101000a031916815260200191505b50838103825285818151815260200191508051906020019080838360005b83811015611c81578082015181840152602081019050611c66565b50505050905090810190601f168015611cae5780820380516001836020036101000a031916815260200191505b509550505050505060405180910390a480915050949350505050565b611cd26123fd565b73ffffffffffffffffffffffffffffffffffffffff16611cf0611d85565b73ffffffffffffffffffffffffffffffffffffffff1614611d79576040517f08c379a00000000000000000000000000000000000000000000000000000000081526004018080602001828103825260208152602001807f4f776e61626c653a2063616c6c6572206973206e6f7420746865206f776e657281525060200191505060405180910390fd5b611d836000612405565b565b60008060009054906101000a900473ffffffffffffffffffffffffffffffffffffffff16905090565b600080600060606000606080606080600080600360008d815260200190815260200160002060405180610140016040529081600082015481526020016001820160009054906101000a900473ffffffffffffffffffffffffffffffffffffffff1673ffffffffffffffffffffffffffffffffffffffff1673ffffffffffffffffffffffffffffffffffffffff16815260200160028201548152602001600382018054600181600116156101000203166002900480601f016020809104026020016040519081016040528092919081815260200182805460018160011615610100020316600290048015611ee25780601f10611eb757610100808354040283529160200191611ee2565b820191906000526020600020905b815481529060010190602001808311611ec557829003601f168201915b505050505081526020016004820154815260200160058201805480602002602001604051908101604052809291908181526020018280548015611f4457602002820191906000526020600020905b815481526020019060010190808311611f30575b5050505050815260200160068201805480602002602001604051908101604052809291908181526020018280548015611f9c57602002820191906000526020600020905b815481526020019060010190808311611f88575b5050505050815260200160078201805480602002602001604051908101604052809291908181526020018280548015611ff457602002820191906000526020600020905b815481526020019060010190808311611fe0575b505050505081526020016008820180548060200260200160405190810160405280929190818152602001828054801561204c57602002820191906000526020600020905b815481526020019060010190808311612038575b505050505081526020016009820154815250509050806000015181602001518260400151836060015184608001518560a001518660c001518760e001518861010001518961012001519a509a509a509a509a509a509a509a509a509a50509193959799509193959799565b60008060006060806000600160008881526020019081526020016000206040518060a0016040529081600082015481526020016001820160009054906101000a900473ffffffffffffffffffffffffffffffffffffffff1673ffffffffffffffffffffffffffffffffffffffff1673ffffffffffffffffffffffffffffffffffffffff16815260200160028201548152602001600382018054600181600116156101000203166002900480601f0160208091040260200160405190810160405280929190818152602001828054600181600116156101000203166002900480156121e25780601f106121b7576101008083540402835291602001916121e2565b820191906000526020600020905b8154815290600101906020018083116121c557829003601f168201915b50505050508152602001600482018054600181600116156101000203166002900480601f0160208091040260200160405190810160405280929190818152602001828054600181600116156101000203166002900480156122845780601f1061225957610100808354040283529160200191612284565b820191906000526020600020905b81548152906001019060200180831161226757829003601f168201915b505050505081525050905080600001518160200151826040015183606001518460800151955095509550955095505091939590929450565b6122c46123fd565b73ffffffffffffffffffffffffffffffffffffffff166122e2611d85565b73ffffffffffffffffffffffffffffffffffffffff161461236b576040517f08c379a00000000000000000000000000000000000000000000000000000000081526004018080602001828103825260208152602001807f4f776e61626c653a2063616c6c6572206973206e6f7420746865206f776e657281525060200191505060405180910390fd5b600073ffffffffffffffffffffffffffffffffffffffff168173ffffffffffffffffffffffffffffffffffffffff1614156123f1576040517f08c379a000000000000000000000000000000000000000000000000000000000815260040180806020018281038252602681526020018061262c6026913960400191505060405180910390fd5b6123fa81612405565b50565b600033905090565b60008060009054906101000a900473ffffffffffffffffffffffffffffffffffffffff169050816000806101000a81548173ffffffffffffffffffffffffffffffffffffffff021916908373ffffffffffffffffffffffffffffffffffffffff1602179055508173ffffffffffffffffffffffffffffffffffffffff168173ffffffffffffffffffffffffffffffffffffffff167f8be0079c531659141344cd1fd0a4f28419497f9722a3daafe3b4186f6b6457e060405160405180910390a35050565b828054600181600116156101000203166002900490600052602060002090601f0160209004810192826124ff5760008555612546565b82601f1061251857805160ff1916838001178555612546565b82800160010185558215612546579182015b8281111561254557825182559160200191906001019061252a565b5b50905061255391906125f1565b5090565b828054828255906000526020600020908101928215612593579160200282015b82811115612592578251825591602001919060010190612577565b5b5090506125a0919061260e565b5090565b8280548282559060005260206000209081019282156125e0579160200282015b828111156125df5782518255916020019190600101906125c4565b5b5090506125ed91906125f1565b5090565b5b8082111561260a5760008160009055506001016125f2565b5090565b5b8082111561262757600081600090555060010161260f565b509056fe4f776e61626c653a206e6577206f776e657220697320746865207a65726f206164647265737320496e707574207261772061726368697665206964206c697374206d757374206d6174636820746865206e756d206c697374496e7075742070726f647563742061726368697665206964206c697374206d757374206d6174636820746865206e756d206c697374a2646970667358221220cd5c09d8ab47ae2671b06631c7c37bb0f13b5553cf07c914c25e26f7ed27af8d64736f6c63430007060033",
  "immutableReferences": {},
  "source": "// SPDX-License-Identifier: MIT\r\npragma solidity >=0.4.22 <0.9.0;\r\n\r\nimport \"./lib/Ownable.sol\";\r\n\r\n/**\r\n * @title Steel Asset Register Centre\r\n * @dev For create profile information such as raw steel, steel products and steel product processing\r\n */\r\ncontract SteelArchiveManager is Ownable {\r\n\r\n    // Raw steel Profile\r\n    struct SteelRawArchive {\r\n        // Raw Steel Profile String\r\n        bytes32 id;\r\n        // Public Key\r\n        address key;\r\n        // Code\r\n        bytes32 code;\r\n        // Spec Name\r\n        string specs;\r\n        // element ingredients\r\n        string ingredients;\r\n    }\r\n\r\n    // Steel Product Profile\r\n    struct SteelProductArchive {\r\n        // Steel Product Profile String\r\n        bytes32 id;\r\n        // Public Key\r\n        address key;\r\n        // Code\r\n        bytes32 code;\r\n        // Product Name\r\n        string name;\r\n        // Unit Weight\r\n        uint weight;\r\n        // Yield Rate\r\n        uint yieldRate;\r\n    }\r\n\r\n    // Steel Product Process Profile\r\n    struct SteelProcessArchive {\r\n        // Steel Product Process Profile String\r\n        bytes32 id;\r\n        // Public Key\r\n        address key;\r\n        // Code\r\n        bytes32 code;\r\n        // Processing Name\r\n        string name;\r\n        // Steel Product Profile String\r\n        bytes32 productArvId;\r\n        // Raw Steel Profile Input String List\r\n        bytes32[] rawArvIdList;\r\n        // Raw Steel Profile Input Amount List\r\n        uint[] rawArvNumList;\r\n        // Steel Product Input String List\r\n        bytes32[] productArvIdList;\r\n        // Steel Product Input Amount List\r\n        uint[] productArvNumList;\r\n        // Output Amount\r\n        uint outputNum;\r\n    }\r\n\r\n    // Raw Steel Profile List\r\n    mapping (bytes32 => SteelRawArchive) rawArvList;\r\n    // Steel Product Profile List\r\n    mapping (bytes32 => SteelProductArchive) productArvList;\r\n    // Steel Product Process Profile List\r\n    mapping (bytes32 => SteelProcessArchive) processArvList;\r\n\r\n    // event for EVM logging\r\n    event SteelRawArchiveCreated(address indexed key, bytes32 indexed code, bytes32 indexed id, string specs, string ingredients, uint timestamp);\r\n    event SteelProductArchiveCreated(address indexed key, bytes32 indexed code, bytes32 indexed id, string name, uint weight, uint yieldRate, uint timestamp);\r\n    event SteelProcessArchiveCreated(address indexed key, bytes32 indexed code, bytes32 indexed id, string name, bytes32 productArvId, \r\n        bytes32[] rawArvIdList, uint[] rawArvNumList, bytes32[] productArvIdList, uint[] productArvNumList, uint outputNum, uint timestamp);\r\n\r\n    /**\r\n     * @dev Create Raw Steel Profile\r\n     * @param key Public Key\r\n     * @param code Code\r\n     * @param specs Spec Name\r\n     * @param ingredients element ingredients\r\n     * @return id Raw Steel Profile String\r\n     */\r\n    function createSteelRawArchive(address key, bytes32 code, string memory specs, string memory ingredients) public onlyOwner returns (bytes32) {\r\n        require(key != address(0), \"The key can not be zero address\");\r\n        bytes32 id = keccak256(abi.encode(key, code, bytes(specs), bytes(ingredients)));\r\n        rawArvList[id].id = id;\r\n        rawArvList[id].key = key;\r\n        rawArvList[id].code = code;\r\n        rawArvList[id].specs = specs;\r\n        rawArvList[id].ingredients = ingredients;\r\n        emit SteelRawArchiveCreated(key, code, id, specs, ingredients, block.timestamp);\r\n        return id;\r\n    }\r\n\r\n    /**\r\n     * @dev Create Steel Product Profile\r\n     * @param key Public Key\r\n     * @param code Code\r\n     * @param name Product Name\r\n     * @param weight Unit Weight\r\n     * @param yieldRate Yield Rate\r\n     * @return id Steel Product Profile String\r\n     */\r\n    function createSteelProductArchive(address key, bytes32 code, string memory name, uint weight, uint yieldRate) public onlyOwner returns (bytes32) {\r\n        require(key != address(0), \"The key can not be zero address\");\r\n        bytes32 id = keccak256(abi.encode(key, code, bytes(name), weight, yieldRate));\r\n        productArvList[id].id = id;\r\n        productArvList[id].key = key;\r\n        productArvList[id].code = code;\r\n        productArvList[id].name = name;\r\n        productArvList[id].weight = weight;\r\n        productArvList[id].yieldRate = yieldRate;\r\n        emit SteelProductArchiveCreated(key, code, id, name, weight, yieldRate, block.timestamp);\r\n        return id;\r\n    }\r\n\r\n    /**\r\n     * @dev Create Steel Product Process Profile\r\n     * @param key Public Key\r\n     * @param code Code\r\n     * @param name Processing Name\r\n     * @param productArvId Steel Product Profile String\r\n     * @param rawArvIdList Raw Steel Profile Input String List\r\n     * @param rawArvNumList Raw Steel Profile Input Amount List\r\n     * @param productArvIdList Steel Product Input String List\r\n     * @param productArvNumList Steel Product Input Amount List\r\n     * @param outputNum Output Amount\r\n     * @return id Steel Product Process Profile String\r\n     */\r\n    function createSteelProcessArchive(address key, bytes32 code, string memory name, bytes32 productArvId, bytes32[] memory rawArvIdList, \r\n    uint[] memory rawArvNumList, bytes32[] memory productArvIdList, uint[] memory productArvNumList, uint outputNum) public onlyOwner returns (bytes32) {\r\n        require(key != address(0), \"The key can not be zero address\");\r\n        require(rawArvIdList.length == rawArvNumList.length, \" Input raw archive id list must match the num list\");\r\n        require(productArvIdList.length == productArvNumList.length, \"Input product archive id list must match the num list\");\r\n        // It is not decided whether  productArvNumList include productArvId \r\n        bytes32 id = keccak256(abi.encode(key, code, bytes(name), productArvId, rawArvIdList, rawArvNumList, productArvIdList, productArvNumList, outputNum));\r\n        processArvList[id].id = id;\r\n        processArvList[id].key = key;\r\n        processArvList[id].code = code;\r\n        processArvList[id].name = name;\r\n        processArvList[id].productArvId = productArvId;\r\n        processArvList[id].rawArvIdList = rawArvIdList;\r\n        processArvList[id].rawArvNumList = rawArvNumList;\r\n        processArvList[id].productArvIdList = productArvIdList;\r\n        processArvList[id].productArvNumList = productArvNumList;\r\n        processArvList[id].outputNum = outputNum;\r\n        emit SteelProcessArchiveCreated(key, code, id, name, productArvId, rawArvIdList, rawArvNumList, productArvIdList, productArvNumList, outputNum, block.timestamp);\r\n        return id;\r\n    }\r\n\r\n    /**\r\n     * @dev Get Raw Steel Profile\r\n     * @param id Raw Steel Profile String\r\n     * @return id Raw Steel Profile String\r\n     * @return key Public Key\r\n     * @return code Code\r\n     * @return specs Spec Name\r\n     * @return ingredients element ingredients\r\n     */\r\n    function getSteelRawArchive(bytes32 id) public view returns (bytes32, address, bytes32, string memory, string memory) {\r\n        SteelRawArchive memory archive = rawArvList[id];\r\n        return(archive.id, archive.key, archive.code, archive.specs, archive.ingredients);\r\n    }\r\n\r\n    /**\r\n     * @dev Get Steel Product Profile\r\n     * @param id Steel Product Profile String\r\n     * @return id Steel Product Profile String\r\n     * @return key Public Key\r\n     * @return code Code\r\n     * @return name Product Name\r\n     * @return weight Unit Weight\r\n     * @return yieldRate Yield Rate\r\n     */\r\n    function getSteelProductArchive(bytes32 id) public view returns (bytes32, address, bytes32, string memory, uint, uint) {\r\n        SteelProductArchive memory archive = productArvList[id];\r\n        return(archive.id, archive.key, archive.code, archive.name, archive.weight, archive.yieldRate);\r\n    }\r\n\r\n    /**\r\n     * @dev Get Steel Product Process Profile\r\n     * @param id Steel Product Process Profile String\r\n     * @return id Steel Product Process Profile String\r\n     * @return key Public Key\r\n     * @return code Code\r\n     * @return name Processing Name\r\n     * @return productArvId Steel Product Profile String\r\n     * @return rawArvIdList Raw Steel Profile Input String List\r\n     * @return rawArvNumList Raw Steel Profile Input Amount List\r\n     * @return productArvIdList Steel Product Input String List\r\n     * @return productArvNumList Steel Product Input Amount List\r\n     * @return outputNum Output Amount\r\n     */\r\n    function getSteelProcessArchive(bytes32 id) public view returns (bytes32, address, bytes32, string memory, bytes32, \r\n    bytes32[] memory, uint[] memory, bytes32[] memory, uint[] memory, uint) {\r\n        SteelProcessArchive memory archive = processArvList[id];\r\n        return(archive.id, archive.key, archive.code, archive.name, archive.productArvId, archive.rawArvIdList, \r\n        archive.rawArvNumList, archive.productArvIdList, archive.productArvNumList, archive.outputNum);\r\n    }\r\n}",
  "sourcePath": "C:\\Users\\davy\\Desktop\\steel-asset-contract\\contracts\\SteelArchiveManager.sol",
  "compiler": {
    "name": "solc",
    "version": "0.7.6+commit.7338295f.Emscripten.clang"
  },
  "schemaVersion": "3.4.0",
  "updatedAt": "2022-09-09T04:01:55.067Z",
  "devdoc": {
    "details": "For create profile information such as raw steel, steel products and steel product processing",
    "kind": "dev",
    "methods": {
      "createSteelProcessArchive(address,bytes32,string,bytes32,bytes32[],uint256[],bytes32[],uint256[],uint256)": {
        "details": "Create Steel Product Process Profile",
        "params": {
          "code": "Code",
          "key": "Public Key",
          "name": "Processing Name",
          "outputNum": "Output Amount",
          "productArvId": "Steel Product Profile String",
          "productArvIdList": "Steel Product Input String List",
          "productArvNumList": "Steel Product Input Amount List",
          "rawArvIdList": "Raw Steel Profile Input String List",
          "rawArvNumList": "Raw Steel Profile Input Amount List"
        },
        "returns": {
          "_0": "id Steel Product Process Profile String"
        }
      },
      "createSteelProductArchive(address,bytes32,string,uint256,uint256)": {
        "details": "Create Steel Product Profile",
        "params": {
          "code": "Code",
          "key": "Public Key",
          "name": "Product Name",
          "weight": "Unit Weight",
          "yieldRate": "Yield Rate"
        },
        "returns": {
          "_0": "id Steel Product Profile String"
        }
      },
      "createSteelRawArchive(address,bytes32,string,string)": {
        "details": "Create Raw Steel Profile",
        "params": {
          "code": "Code",
          "ingredients": "element ingredients",
          "key": "Public Key",
          "specs": "Spec Name"
        },
        "returns": {
          "_0": "id Raw Steel Profile String"
        }
      },
      "getSteelProcessArchive(bytes32)": {
        "details": "Get Steel Product Process Profile",
        "params": {
          "id": "Steel Product Process Profile String"
        },
        "returns": {
          "_0": "id Steel Product Process Profile String",
          "_1": "key Public Key",
          "_2": "code Code",
          "_3": "name Processing Name",
          "_4": "productArvId Steel Product Profile String",
          "_5": "rawArvIdList Raw Steel Profile Input String List",
          "_6": "rawArvNumList Raw Steel Profile Input Amount List",
          "_7": "productArvIdList Steel Product Input String List",
          "_8": "productArvNumList Steel Product Input Amount List",
          "_9": "outputNum Output Amount"
        }
      },
      "getSteelProductArchive(bytes32)": {
        "details": "Get Steel Product Profile",
        "params": {
          "id": "Steel Product Profile String"
        },
        "returns": {
          "_0": "id Steel Product Profile String",
          "_1": "key Public Key",
          "_2": "code Code",
          "_3": "name Product Name",
          "_4": "weight Unit Weight",
          "_5": "yieldRate Yield Rate"
        }
      },
      "getSteelRawArchive(bytes32)": {
        "details": "Get Raw Steel Profile",
        "params": {
          "id": "Raw Steel Profile String"
        },
        "returns": {
          "_0": "id Raw Steel Profile String",
          "_1": "key Public Key",
          "_2": "code Code",
          "_3": "specs Spec Name",
          "_4": "ingredients element ingredients"
        }
      }
    },
    "title": "Steel Asset Register Centre",
    "version": 1
  },
  "userdoc": {
    "kind": "user",
    "methods": {},
    "version": 1
  }
}