{
  "contractName": "SteelAssetManager",
  "abi": [
    {
      "inputs": [
        {
          "internalType": "address",
          "name": "_steelArchiveManager",
          "type": "address"
        }
      ],
      "stateMutability": "nonpayable",
      "type": "constructor"
    },
    {
      "anonymous": false,
      "inputs": [
        {
          "indexed": true,
          "internalType": "address",
          "name": "previousOwner",
          "type": "address"
        },
        {
          "indexed": true,
          "internalType": "address",
          "name": "newOwner",
          "type": "address"
        }
      ],
      "name": "OwnershipTransferred",
      "type": "event"
    },
    {
      "anonymous": false,
      "inputs": [
        {
          "indexed": true,
          "internalType": "address",
          "name": "steelManager",
          "type": "address"
        }
      ],
      "name": "SteelManagerCreate",
      "type": "event"
    },
    {
      "anonymous": false,
      "inputs": [
        {
          "indexed": true,
          "internalType": "address",
          "name": "steelManager",
          "type": "address"
        }
      ],
      "name": "SteelManagerDelete",
      "type": "event"
    },
    {
      "anonymous": false,
      "inputs": [
        {
          "indexed": true,
          "internalType": "address",
          "name": "key",
          "type": "address"
        },
        {
          "indexed": true,
          "internalType": "bytes32",
          "name": "productArvId",
          "type": "bytes32"
        },
        {
          "indexed": true,
          "internalType": "bytes32",
          "name": "id",
          "type": "bytes32"
        },
        {
          "indexed": false,
          "internalType": "bytes32",
          "name": "processArvId",
          "type": "bytes32"
        },
        {
          "indexed": false,
          "internalType": "uint256",
          "name": "num",
          "type": "uint256"
        },
        {
          "indexed": false,
          "internalType": "uint256",
          "name": "date",
          "type": "uint256"
        },
        {
          "indexed": false,
          "internalType": "uint8",
          "name": "origin",
          "type": "uint8"
        },
        {
          "indexed": false,
          "internalType": "bytes32",
          "name": "originId",
          "type": "bytes32"
        }
      ],
      "name": "SteelProductAssetCreate",
      "type": "event"
    },
    {
      "anonymous": false,
      "inputs": [
        {
          "indexed": false,
          "internalType": "bytes32",
          "name": "productAssetId",
          "type": "bytes32"
        },
        {
          "indexed": false,
          "internalType": "uint256",
          "name": "date",
          "type": "uint256"
        }
      ],
      "name": "SteelProductAssetDelete",
      "type": "event"
    },
    {
      "anonymous": false,
      "inputs": [
        {
          "indexed": true,
          "internalType": "address",
          "name": "key",
          "type": "address"
        },
        {
          "indexed": true,
          "internalType": "bytes32",
          "name": "rawArvId",
          "type": "bytes32"
        },
        {
          "indexed": true,
          "internalType": "bytes32",
          "name": "id",
          "type": "bytes32"
        },
        {
          "indexed": false,
          "internalType": "bytes32",
          "name": "furnace",
          "type": "bytes32"
        },
        {
          "indexed": false,
          "internalType": "bytes32",
          "name": "batch",
          "type": "bytes32"
        },
        {
          "indexed": false,
          "internalType": "string",
          "name": "structure",
          "type": "string"
        },
        {
          "indexed": false,
          "internalType": "uint256",
          "name": "num",
          "type": "uint256"
        },
        {
          "indexed": false,
          "internalType": "uint256",
          "name": "date",
          "type": "uint256"
        },
        {
          "indexed": false,
          "internalType": "uint8",
          "name": "origin",
          "type": "uint8"
        },
        {
          "indexed": false,
          "internalType": "bytes32",
          "name": "originId",
          "type": "bytes32"
        }
      ],
      "name": "SteelRawAssetCreate",
      "type": "event"
    },
    {
      "anonymous": false,
      "inputs": [
        {
          "indexed": false,
          "internalType": "bytes32",
          "name": "rawAssetId",
          "type": "bytes32"
        },
        {
          "indexed": false,
          "internalType": "uint256",
          "name": "date",
          "type": "uint256"
        }
      ],
      "name": "SteelRawAssetDelete",
      "type": "event"
    },
    {
      "inputs": [],
      "name": "owner",
      "outputs": [
        {
          "internalType": "address",
          "name": "",
          "type": "address"
        }
      ],
      "stateMutability": "view",
      "type": "function"
    },
    {
      "inputs": [],
      "name": "renounceOwnership",
      "outputs": [],
      "stateMutability": "nonpayable",
      "type": "function"
    },
    {
      "inputs": [],
      "name": "steelArchiveManager",
      "outputs": [
        {
          "internalType": "contract SteelArchiveManager",
          "name": "",
          "type": "address"
        }
      ],
      "stateMutability": "view",
      "type": "function"
    },
    {
      "inputs": [
        {
          "internalType": "address",
          "name": "newOwner",
          "type": "address"
        }
      ],
      "name": "transferOwnership",
      "outputs": [],
      "stateMutability": "nonpayable",
      "type": "function"
    },
    {
      "inputs": [
        {
          "internalType": "address",
          "name": "steelManager",
          "type": "address"
        }
      ],
      "name": "createSteelManager",
      "outputs": [
        {
          "internalType": "bool",
          "name": "",
          "type": "bool"
        }
      ],
      "stateMutability": "nonpayable",
      "type": "function"
    },
    {
      "inputs": [
        {
          "internalType": "address",
          "name": "steelManager",
          "type": "address"
        }
      ],
      "name": "deleteSteelManager",
      "outputs": [
        {
          "internalType": "bool",
          "name": "",
          "type": "bool"
        }
      ],
      "stateMutability": "nonpayable",
      "type": "function"
    },
    {
      "inputs": [
        {
          "internalType": "address",
          "name": "steelManager",
          "type": "address"
        }
      ],
      "name": "isSteelManager",
      "outputs": [
        {
          "internalType": "bool",
          "name": "",
          "type": "bool"
        }
      ],
      "stateMutability": "view",
      "type": "function"
    },
    {
      "inputs": [
        {
          "internalType": "bytes32",
          "name": "rawArvId",
          "type": "bytes32"
        },
        {
          "internalType": "bytes32",
          "name": "furnace",
          "type": "bytes32"
        },
        {
          "internalType": "bytes32",
          "name": "batch",
          "type": "bytes32"
        },
        {
          "internalType": "string",
          "name": "structure",
          "type": "string"
        },
        {
          "internalType": "uint256",
          "name": "num",
          "type": "uint256"
        }
      ],
      "name": "createSteelRawAsset",
      "outputs": [
        {
          "internalType": "bytes32",
          "name": "",
          "type": "bytes32"
        }
      ],
      "stateMutability": "nonpayable",
      "type": "function"
    },
    {
      "inputs": [
        {
          "internalType": "bytes32",
          "name": "rawAssetId",
          "type": "bytes32"
        },
        {
          "internalType": "address",
          "name": "key",
          "type": "address"
        },
        {
          "internalType": "uint256",
          "name": "num",
          "type": "uint256"
        },
        {
          "internalType": "uint256",
          "name": "regDate",
          "type": "uint256"
        },
        {
          "internalType": "uint8",
          "name": "origin",
          "type": "uint8"
        },
        {
          "internalType": "bytes32",
          "name": "originId",
          "type": "bytes32"
        }
      ],
      "name": "createSteelRawAssetByManager",
      "outputs": [
        {
          "internalType": "bytes32",
          "name": "",
          "type": "bytes32"
        }
      ],
      "stateMutability": "nonpayable",
      "type": "function"
    },
    {
      "inputs": [
        {
          "internalType": "address",
          "name": "key",
          "type": "address"
        },
        {
          "internalType": "bytes32",
          "name": "productArvId",
          "type": "bytes32"
        },
        {
          "internalType": "bytes32",
          "name": "processArvId",
          "type": "bytes32"
        },
        {
          "internalType": "uint256",
          "name": "num",
          "type": "uint256"
        },
        {
          "internalType": "uint256",
          "name": "regDate",
          "type": "uint256"
        },
        {
          "internalType": "uint8",
          "name": "origin",
          "type": "uint8"
        },
        {
          "internalType": "bytes32",
          "name": "originId",
          "type": "bytes32"
        }
      ],
      "name": "createSteelProductAsset",
      "outputs": [
        {
          "internalType": "bytes32",
          "name": "",
          "type": "bytes32"
        }
      ],
      "stateMutability": "nonpayable",
      "type": "function"
    },
    {
      "inputs": [
        {
          "internalType": "bytes32",
          "name": "productAssetId",
          "type": "bytes32"
        },
        {
          "internalType": "address",
          "name": "key",
          "type": "address"
        },
        {
          "internalType": "uint256",
          "name": "num",
          "type": "uint256"
        },
        {
          "internalType": "uint256",
          "name": "regDate",
          "type": "uint256"
        },
        {
          "internalType": "uint8",
          "name": "origin",
          "type": "uint8"
        },
        {
          "internalType": "bytes32",
          "name": "originId",
          "type": "bytes32"
        }
      ],
      "name": "createSteelProductAssetByManager",
      "outputs": [
        {
          "internalType": "bytes32",
          "name": "",
          "type": "bytes32"
        }
      ],
      "stateMutability": "nonpayable",
      "type": "function"
    },
    {
      "inputs": [
        {
          "internalType": "bytes32",
          "name": "rawAssetId",
          "type": "bytes32"
        },
        {
          "internalType": "uint256",
          "name": "date",
          "type": "uint256"
        }
      ],
      "name": "deleteSteelRawAsset",
      "outputs": [
        {
          "internalType": "bool",
          "name": "",
          "type": "bool"
        }
      ],
      "stateMutability": "nonpayable",
      "type": "function"
    },
    {
      "inputs": [
        {
          "internalType": "bytes32",
          "name": "productAssetId",
          "type": "bytes32"
        },
        {
          "internalType": "uint256",
          "name": "date",
          "type": "uint256"
        }
      ],
      "name": "deleteSteelProductAsset",
      "outputs": [
        {
          "internalType": "bool",
          "name": "",
          "type": "bool"
        }
      ],
      "stateMutability": "nonpayable",
      "type": "function"
    },
    {
      "inputs": [
        {
          "internalType": "bytes32",
          "name": "id",
          "type": "bytes32"
        }
      ],
      "name": "getSteelRawAsset",
      "outputs": [
        {
          "internalType": "bytes32",
          "name": "",
          "type": "bytes32"
        },
        {
          "internalType": "address",
          "name": "",
          "type": "address"
        },
        {
          "internalType": "bytes32",
          "name": "",
          "type": "bytes32"
        },
        {
          "internalType": "bytes32",
          "name": "",
          "type": "bytes32"
        },
        {
          "internalType": "bytes32",
          "name": "",
          "type": "bytes32"
        },
        {
          "internalType": "string",
          "name": "",
          "type": "string"
        },
        {
          "internalType": "uint256",
          "name": "",
          "type": "uint256"
        },
        {
          "internalType": "uint256",
          "name": "",
          "type": "uint256"
        },
        {
          "internalType": "uint8",
          "name": "",
          "type": "uint8"
        },
        {
          "internalType": "bytes32",
          "name": "",
          "type": "bytes32"
        },
        {
          "internalType": "bool",
          "name": "",
          "type": "bool"
        },
        {
          "internalType": "uint256",
          "name": "",
          "type": "uint256"
        }
      ],
      "stateMutability": "view",
      "type": "function"
    },
    {
      "inputs": [
        {
          "internalType": "bytes32",
          "name": "id",
          "type": "bytes32"
        }
      ],
      "name": "getSteelProductAsset",
      "outputs": [
        {
          "internalType": "bytes32",
          "name": "",
          "type": "bytes32"
        },
        {
          "internalType": "address",
          "name": "",
          "type": "address"
        },
        {
          "internalType": "bytes32",
          "name": "",
          "type": "bytes32"
        },
        {
          "internalType": "bytes32",
          "name": "",
          "type": "bytes32"
        },
        {
          "internalType": "uint256",
          "name": "",
          "type": "uint256"
        },
        {
          "internalType": "uint256",
          "name": "",
          "type": "uint256"
        },
        {
          "internalType": "uint8",
          "name": "",
          "type": "uint8"
        },
        {
          "internalType": "bytes32",
          "name": "",
          "type": "bytes32"
        },
        {
          "internalType": "bool",
          "name": "",
          "type": "bool"
        },
        {
          "internalType": "uint256",
          "name": "",
          "type": "uint256"
        }
      ],
      "stateMutability": "view",
      "type": "function"
    }
  ],
  "bytecode": "0x60806040523480156200001157600080fd5b50604051620021f9380380620021f9833981810160405260208110156200003757600080fd5b81019080805190602001909291905050506200007a62000065620000c2640100000000026401000000009004565b620000ca640100000000026401000000009004565b80600360006101000a81548173ffffffffffffffffffffffffffffffffffffffff021916908373ffffffffffffffffffffffffffffffffffffffff160217905550506200018e565b600033905090565b60008060009054906101000a900473ffffffffffffffffffffffffffffffffffffffff169050816000806101000a81548173ffffffffffffffffffffffffffffffffffffffff021916908373ffffffffffffffffffffffffffffffffffffffff1602179055508173ffffffffffffffffffffffffffffffffffffffff168173ffffffffffffffffffffffffffffffffffffffff167f8be0079c531659141344cd1fd0a4f28419497f9722a3daafe3b4186f6b6457e060405160405180910390a35050565b61205b806200019e6000396000f3fe608060405234801561001057600080fd5b5060043610610112576000357c0100000000000000000000000000000000000000000000000000000000900480637cd7090d116100b4578063db852c9d11610083578063db852c9d14610647578063ec52e72b14610695578063f2fde38b1461072c578063fb5b3eeb1461077057610112565b80637cd7090d1461042957806382a42c17146104b65780638da5cb5b14610504578063d2bee76a1461053857610112565b806362b4dbf9116100f057806362b4dbf9146102f55780636357e6e114610391578063715018a6146103c557806376135e5c146103cf57610112565b80630e2aaa871461011757806324ec3b3e146101715780633a3e602314610268575b600080fd5b6101596004803603602081101561012d57600080fd5b81019080803573ffffffffffffffffffffffffffffffffffffffff1690602001909291905050506107ca565b60405180821515815260200191505060405180910390f35b610252600480360360a081101561018757600080fd5b81019080803590602001909291908035906020019092919080359060200190929190803590602001906401000000008111156101c257600080fd5b8201836020820111156101d457600080fd5b803590602001918460018302840111640100000000831117156101f657600080fd5b91908080601f016020809104026020016040519081016040528093929190818152602001838380828437600081840152601f19601f8201169050808301925050505050505091929192908035906020019092919050505061093e565b6040518082815260200191505060405180910390f35b6102df600480360360c081101561027e57600080fd5b8101908080359060200190929190803573ffffffffffffffffffffffffffffffffffffffff1690602001909291908035906020019092919080359060200190929190803560ff16906020019092919080359060200190929190505050610c66565b6040518082815260200191505060405180910390f35b6103216004803603602081101561030b57600080fd5b8101908080359060200190929190505050610cc1565b604051808b81526020018a73ffffffffffffffffffffffffffffffffffffffff1681526020018981526020018881526020018781526020018681526020018560ff16815260200184815260200183151581526020018281526020019a505050505050505050505060405180910390f35b610399610e1d565b604051808273ffffffffffffffffffffffffffffffffffffffff16815260200191505060405180910390f35b6103cd610e43565b005b610411600480360360208110156103e557600080fd5b81019080803573ffffffffffffffffffffffffffffffffffffffff169060200190929190505050610efe565b60405180821515815260200191505060405180910390f35b6104a0600480360360c081101561043f57600080fd5b8101908080359060200190929190803573ffffffffffffffffffffffffffffffffffffffff1690602001909291908035906020019092919080359060200190929190803560ff16906020019092919080359060200190929190505050610f54565b6040518082815260200191505060405180910390f35b6104ec600480360360408110156104cc57600080fd5b810190808035906020019092919080359060200190929190505050611075565b60405180821515815260200191505060405180910390f35b61050c61109b565b604051808273ffffffffffffffffffffffffffffffffffffffff16815260200191505060405180910390f35b6105646004803603602081101561054e57600080fd5b81019080803590602001909291905050506110c4565b604051808d81526020018c73ffffffffffffffffffffffffffffffffffffffff1681526020018b81526020018a8152602001898152602001806020018881526020018781526020018660ff1681526020018581526020018415158152602001838152602001828103825289818151815260200191508051906020019080838360005b838110156106015780820151818401526020810190506105e6565b50505050905090810190601f16801561062e5780820380516001836020036101000a031916815260200191505b509d505050505050505050505050505060405180910390f35b61067d6004803603604081101561065d57600080fd5b8101908080359060200190929190803590602001909291905050506112e2565b60405180821515815260200191505060405180910390f35b610716600480360360e08110156106ab57600080fd5b81019080803573ffffffffffffffffffffffffffffffffffffffff16906020019092919080359060200190929190803590602001909291908035906020019092919080359060200190929190803560ff16906020019092919080359060200190929190505050611308565b6040518082815260200191505060405180910390f35b61076e6004803603602081101561074257600080fd5b81019080803573ffffffffffffffffffffffffffffffffffffffff169060200190929190505050611338565b005b6107b26004803603602081101561078657600080fd5b81019080803573ffffffffffffffffffffffffffffffffffffffff169060200190929190505050611479565b60405180821515815260200191505060405180910390f35b60006107d46115f6565b73ffffffffffffffffffffffffffffffffffffffff166107f261109b565b73ffffffffffffffffffffffffffffffffffffffff161461087b576040517f08c379a00000000000000000000000000000000000000000000000000000000081526004018080602001828103825260208152602001807f4f776e61626c653a2063616c6c6572206973206e6f7420746865206f776e657281525060200191505060405180910390fd5b61089a8273ffffffffffffffffffffffffffffffffffffffff166115fe565b6108a357600080fd5b600460008373ffffffffffffffffffffffffffffffffffffffff1673ffffffffffffffffffffffffffffffffffffffff16815260200190815260200160002060006101000a81549060ff02191690558173ffffffffffffffffffffffffffffffffffffffff167f23ef6a7949a9e8c42bbac7ed6504e8bca5126d7f86b7ef75e65c7cf3b0fb558c60405160405180910390a260019050919050565b600080600360009054906101000a900473ffffffffffffffffffffffffffffffffffffffff1673ffffffffffffffffffffffffffffffffffffffff1663c9adafa4886040518263ffffffff167c01000000000000000000000000000000000000000000000000000000000281526004018082815260200191505060006040518083038186803b1580156109d057600080fd5b505afa1580156109e4573d6000803e3d6000fd5b505050506040513d6000823e3d601f19601f8201168201806040525060a0811015610a0e57600080fd5b8101908080519060200190929190805190602001909291908051906020019092919080516040519392919084640100000000821115610a4c57600080fd5b83820191506020820185811115610a6257600080fd5b8251866001820283011164010000000082111715610a7f57600080fd5b8083526020830192505050908051906020019080838360005b83811015610ab3578082015181840152602081019050610a98565b50505050905090810190601f168015610ae05780820380516001836020036101000a031916815260200191505b5060405260200180516040519392919084640100000000821115610b0357600080fd5b83820191506020820185811115610b1957600080fd5b8251866001820283011164010000000082111715610b3657600080fd5b8083526020830192505050908051906020019080838360005b83811015610b6a578082015181840152602081019050610b4f565b50505050905090810190601f168015610b975780820380516001836020036101000a031916815260200191505b506040525050505050509150508073ffffffffffffffffffffffffffffffffffffffff163373ffffffffffffffffffffffffffffffffffffffff1614610c45576040517f08c379a00000000000000000000000000000000000000000000000000000000081526004018080602001828103825260118152602001807f5065726d697373696f6e2064656e69656400000000000000000000000000000081525060200191505060405180910390fd5b610c5a33888888888842600080600102611611565b91505095945050505050565b6000610c7133610efe565b610c7a57600080fd5b610cb586600260008a815260200190815260200160002060020154600260008b81526020019081526020016000206003015488888888611a52565b90509695505050505050565b6000806000806000806000806000806000600260008d815260200190815260200160002060405180610140016040529081600082015481526020016001820160009054906101000a900473ffffffffffffffffffffffffffffffffffffffff1673ffffffffffffffffffffffffffffffffffffffff1673ffffffffffffffffffffffffffffffffffffffff168152602001600282015481526020016003820154815260200160048201548152602001600582015481526020016006820160009054906101000a900460ff1660ff1660ff168152602001600782015481526020016008820160009054906101000a900460ff161515151581526020016009820154815250509050806000015181602001518260400151836060015184608001518560a001518660c001518760e001518861010001518961012001519a509a509a509a509a509a509a509a509a509a50509193959799509193959799565b600360009054906101000a900473ffffffffffffffffffffffffffffffffffffffff1681565b610e4b6115f6565b73ffffffffffffffffffffffffffffffffffffffff16610e6961109b565b73ffffffffffffffffffffffffffffffffffffffff1614610ef2576040517f08c379a00000000000000000000000000000000000000000000000000000000081526004018080602001828103825260208152602001807f4f776e61626c653a2063616c6c6572206973206e6f7420746865206f776e657281525060200191505060405180910390fd5b610efc6000611d44565b565b6000600460008373ffffffffffffffffffffffffffffffffffffffff1673ffffffffffffffffffffffffffffffffffffffff16815260200190815260200160002060009054906101000a900460ff169050919050565b6000610f5f33610efe565b610f6857600080fd5b61106986600160008a815260200190815260200160002060020154600160008b815260200190815260200160002060030154600160008c815260200190815260200160002060040154600160008d81526020019081526020016000206005018054600181600116156101000203166002900480601f01602080910402602001604051908101604052809291908181526020018280546001816001161561010002031660029004801561105b5780601f106110305761010080835404028352916020019161105b565b820191906000526020600020905b81548152906001019060200180831161103e57829003601f168201915b50505050508a8a8a8a611611565b90509695505050505050565b600061108033610efe565b61108957600080fd5b6110938383611e08565b905092915050565b60008060009054906101000a900473ffffffffffffffffffffffffffffffffffffffff16905090565b600080600080600060606000806000806000806000600160008f815260200190815260200160002060405180610180016040529081600082015481526020016001820160009054906101000a900473ffffffffffffffffffffffffffffffffffffffff1673ffffffffffffffffffffffffffffffffffffffff1673ffffffffffffffffffffffffffffffffffffffff168152602001600282015481526020016003820154815260200160048201548152602001600582018054600181600116156101000203166002900480601f01602080910402602001604051908101604052809291908181526020018280546001816001161561010002031660029004801561120f5780601f106111e45761010080835404028352916020019161120f565b820191906000526020600020905b8154815290600101906020018083116111f257829003601f168201915b5050505050815260200160068201548152602001600782015481526020016008820160009054906101000a900460ff1660ff1660ff16815260200160098201548152602001600a820160009054906101000a900460ff16151515158152602001600b820154815250509050806000015181602001518260400151836060015184608001518560a001518660c001518760e001518861010001518961012001518a61014001518b61016001519c509c509c509c509c509c509c509c509c509c509c509c505091939597999b5091939597999b565b60006112ed33610efe565b6112f657600080fd5b6113008383611e9c565b905092915050565b600061131333610efe565b61131c57600080fd5b61132b88888888888888611a52565b9050979650505050505050565b6113406115f6565b73ffffffffffffffffffffffffffffffffffffffff1661135e61109b565b73ffffffffffffffffffffffffffffffffffffffff16146113e7576040517f08c379a00000000000000000000000000000000000000000000000000000000081526004018080602001828103825260208152602001807f4f776e61626c653a2063616c6c6572206973206e6f7420746865206f776e657281525060200191505060405180910390fd5b600073ffffffffffffffffffffffffffffffffffffffff168173ffffffffffffffffffffffffffffffffffffffff16141561146d576040517f08c379a0000000000000000000000000000000000000000000000000000000008152600401808060200182810382526026815260200180611fdd6026913960400191505060405180910390fd5b61147681611d44565b50565b60006114836115f6565b73ffffffffffffffffffffffffffffffffffffffff166114a161109b565b73ffffffffffffffffffffffffffffffffffffffff161461152a576040517f08c379a00000000000000000000000000000000000000000000000000000000081526004018080602001828103825260208152602001807f4f776e61626c653a2063616c6c6572206973206e6f7420746865206f776e657281525060200191505060405180910390fd5b6115498273ffffffffffffffffffffffffffffffffffffffff166115fe565b61155257600080fd5b6001600460008473ffffffffffffffffffffffffffffffffffffffff1673ffffffffffffffffffffffffffffffffffffffff16815260200190815260200160002060006101000a81548160ff0219169083151502179055508173ffffffffffffffffffffffffffffffffffffffff167fc2468e712759b477b7e7810b3ab60582e7df0ed502eaae00b5a0ce76fbfa2d2860405160405180910390a260019050919050565b600033905090565b600080823b905060008111915050919050565b6000808511611688576040517f08c379a000000000000000000000000000000000000000000000000000000000815260040180806020018281038252601a8152602001807f4e756d206d7573742062652067726561746572207468616e203000000000000081525060200191505060405180910390fd5b60008a8a8a8a8a8a8a604051602001808873ffffffffffffffffffffffffffffffffffffffff16815260200187815260200186815260200185815260200180602001848152602001838152602001828103825285818151815260200191508051906020019080838360005b8381101561170e5780820151818401526020810190506116f3565b50505050905090810190601f16801561173b5780820380516001836020036101000a031916815260200191505b509850505050505050505060405160208183030381529060405280519060200120905060006001026001600083815260200190815260200160002060000154146117ed576040517f08c379a000000000000000000000000000000000000000000000000000000000815260040180806020018281038252601f8152602001807f5468652072617720617373657420696420616c7265616479206578697374730081525060200191505060405180910390fd5b8060016000838152602001908152602001600020600001819055508a6001600083815260200190815260200160002060010160006101000a81548173ffffffffffffffffffffffffffffffffffffffff021916908373ffffffffffffffffffffffffffffffffffffffff160217905550896001600083815260200190815260200160002060020181905550886001600083815260200190815260200160002060030181905550876001600083815260200190815260200160002060040181905550866001600083815260200190815260200160002060050190805190602001906118d8929190611f31565b50856001600083815260200190815260200160002060060181905550846001600083815260200190815260200160002060070181905550836001600083815260200190815260200160002060080160006101000a81548160ff021916908360ff160217905550826001600083815260200190815260200160002060090181905550808a8c73ffffffffffffffffffffffffffffffffffffffff167fbcd38c596bd5a7998c78eca76862c2910d51468a2571d5dace59618083c512ca8c8c8c8c8c8c8c60405180888152602001878152602001806020018681526020018581526020018460ff168152602001838152602001828103825287818151815260200191508051906020019080838360005b83811015611a015780820151818401526020810190506119e6565b50505050905090810190601f168015611a2e5780820380516001836020036101000a031916815260200191505b509850505050505050505060405180910390a4809150509998505050505050505050565b6000808511611ac9576040517f08c379a000000000000000000000000000000000000000000000000000000000815260040180806020018281038252601a8152602001807f4e756d206d7573742062652067726561746572207468616e203000000000000081525060200191505060405180910390fd5b60008888888888604051602001808673ffffffffffffffffffffffffffffffffffffffff168152602001858152602001848152602001838152602001828152602001955050505050506040516020818303038152906040528051906020012090506000600102600160008381526020019081526020016000206000015414611b9c576040517f08c379a00000000000000000000000000000000000000000000000000000000081526004018080602001828103825260238152602001806120036023913960400191505060405180910390fd5b806002600083815260200190815260200160002060000181905550886002600083815260200190815260200160002060010160006101000a81548173ffffffffffffffffffffffffffffffffffffffff021916908373ffffffffffffffffffffffffffffffffffffffff160217905550876002600083815260200190815260200160002060020181905550866002600083815260200190815260200160002060030181905550856002600083815260200190815260200160002060040181905550846002600083815260200190815260200160002060050181905550836002600083815260200190815260200160002060060160006101000a81548160ff021916908360ff16021790555082600260008381526020019081526020016000206007018190555080888a73ffffffffffffffffffffffffffffffffffffffff167f4ab35f14d482954bbfcae6b37b6a37c6eeee3626da182680e81ab8ad0dcc085e8a8a8a8a8a604051808681526020018581526020018481526020018360ff1681526020018281526020019550505050505060405180910390a480915050979650505050505050565b60008060009054906101000a900473ffffffffffffffffffffffffffffffffffffffff169050816000806101000a81548173ffffffffffffffffffffffffffffffffffffffff021916908373ffffffffffffffffffffffffffffffffffffffff1602179055508173ffffffffffffffffffffffffffffffffffffffff168173ffffffffffffffffffffffffffffffffffffffff167f8be0079c531659141344cd1fd0a4f28419497f9722a3daafe3b4186f6b6457e060405160405180910390a35050565b60006001806000858152602001908152602001600020600a0160006101000a81548160ff0219169083151502179055508160016000858152602001908152602001600020600b01819055507f9fa68ff916643a3a11d4a44fe19ffd51faf536bf03f49f8e78de6050cd04592f8383604051808381526020018281526020019250505060405180910390a16001905092915050565b600060016002600085815260200190815260200160002060080160006101000a81548160ff0219169083151502179055508160026000858152602001908152602001600020600901819055507fbc0dcf6f1d83f48497a71bf97f16754dcd06051711b7c16d7a5ad2b96cbc62328383604051808381526020018281526020019250505060405180910390a16001905092915050565b828054600181600116156101000203166002900490600052602060002090601f016020900481019282611f675760008555611fae565b82601f10611f8057805160ff1916838001178555611fae565b82800160010185558215611fae579182015b82811115611fad578251825591602001919060010190611f92565b5b509050611fbb9190611fbf565b5090565b5b80821115611fd8576000816000905550600101611fc0565b509056fe4f776e61626c653a206e6577206f776e657220697320746865207a65726f20616464726573735468652070726f6475637420617373657420696420616c726561647920657869737473a264697066735822122006e85d724c55227793f54d73942595d0330198b7f60ff3ed9233a3bc2889b20664736f6c63430007060033",
  "immutableReferences": {},
  "source": "// SPDX-License-Identifier: MIT\npragma solidity >=0.4.22 <0.9.0;\n\nimport \"./lib/Ownable.sol\";\nimport \"./lib/math/SafeMath.sol\";\nimport \"./lib/utils/AddressUtils.sol\";\nimport \"./SteelArchiveManager.sol\";\n\n/**\n * @title Steel Asset Registration Centre\n * @dev Used to register asset information such as raw steel and steel products\n */\ncontract SteelAssetManager is Ownable {\n\n    // library\n    using SafeMath for uint256;\n    using AddressUtils for address;\n\n    // Raw Steel Asset Information\n    struct SteelRawAsset {\n        // Raw Steel Asset String\n        bytes32 id;\n        // Public Key\n        address key;\n        // Raw Steel Profile String\n        bytes32 rawArvId;\n        // Heat No\n        bytes32 furnace;\n        // Batch No\n        bytes32 batch;\n        // Fundamental organization\n        string structure;\n        // Amount/Weight\n        uint num;\n        // Registration Date\n        uint regDate;\n        // Asset Source 0 : Registration1 : Trade2 : Process\n        uint8 origin;\n        // Source String Trade/Process\n        bytes32 originId;\n        // Burn or Not\n        bool isDel;\n        // Burn Date\n        uint delDate;\n    }\n\n    // Steel Asset Information\n    struct SteelProductAsset {\n        // Steel Asset String\n        bytes32 id;\n        // Public Key\n        address key;\n        // Steel Product Profile String\n        bytes32 productArvId;\n        // Steel Product Process Profile String\n        bytes32 processArvId;\n        // Amount\n        uint num;\n        // Registration Date\n        uint regDate;\n        // Asset Source 0 : Registration1 : Trade2 : Process\n        uint8 origin;\n        // Source String Trade/\n        bytes32 originId;\n        // Burn or Not\n        bool isDel;\n        // Burn Date\n        uint delDate;\n    }\n\n    // Raw Steel Asset List\n    mapping (bytes32 => SteelRawAsset) rawAssetList;\n    // Steel Asset List\n    mapping (bytes32 => SteelProductAsset) productAssetList;\n\n    // Rely on Steel Asset  Registration Contract\n    SteelArchiveManager public steelArchiveManager;\n\n    // Constructor\n    constructor(address _steelArchiveManager) {\n        steelArchiveManager = SteelArchiveManager(_steelArchiveManager);\n    }\n    \n    // Steel Asset Operate Contract ListBe able to operate steel asset\n    mapping (address => bool) steelManagerList; \n    \n    // event for EVM logging\n    event SteelManagerCreate(address indexed steelManager);\n    event SteelManagerDelete(address indexed steelManager);\n\n    /**\n     * @dev Create Steel Asset Operate Contract\n     * @param steelManager Steel Asset Operate Contract Address\n     * @return Succeed or Not\n     */\n    function createSteelManager(address steelManager) public onlyOwner returns (bool) {\n        require(steelManager.isContract());\n        steelManagerList[steelManager] = true;\n        emit SteelManagerCreate(steelManager);\n        return true;\n    }\n\n    /**\n     * @dev Delete Steel Asset Operate Contract\n     * @param steelManager Steel Asset Operate Contract Address\n     * @return Succeed or Not\n     */\n    function deleteSteelManager(address steelManager) public onlyOwner returns (bool) {\n        require(steelManager.isContract());\n        delete steelManagerList[steelManager];\n        emit SteelManagerDelete(steelManager);\n        return true;\n    }\n\n    /**\n     * @dev Query if Steel Asset Operate Contract\n     * @param steelManager Steel Asset Operate Contract Address\n     * @return Yes or No\n     */\n    function isSteelManager(address steelManager) public view returns (bool) {\n        return steelManagerList[steelManager];\n    }\n\n    // event for EVM logging\n    event SteelRawAssetCreate(address indexed key, bytes32 indexed rawArvId, bytes32 indexed id, bytes32 furnace, bytes32 batch, string structure, uint num, uint date, uint8 origin, bytes32 originId);\n    event SteelProductAssetCreate(address indexed key, bytes32 indexed productArvId, bytes32 indexed id, bytes32 processArvId, uint num, uint date, uint8 origin, bytes32 originId);\n    event SteelRawAssetDelete(bytes32 rawAssetId, uint date);\n    event SteelProductAssetDelete(bytes32 productAssetId, uint date);\n\n    /**\n     * @dev RegistrationRaw Steel Asset Information\n     * @param rawArvId Raw Steel Profile String\n     * @param furnace Heat No\n     * @param batch Batch No\n     * @param structure Fundamental organization\n     * @param num Amount/Weight\n     * @return id Raw Steel Asset String\n     */\n    function createSteelRawAsset(bytes32 rawArvId, bytes32 furnace, bytes32 batch, string memory structure, uint num) public returns (bytes32) {\n        (,address key,,,) = steelArchiveManager.getSteelRawArchive(rawArvId);\n        require(msg.sender == key, \"Permission denied\");\n        return _createSteelRawAsset(msg.sender, rawArvId, furnace, batch, structure, num, block.timestamp, 0, bytes32(0));\n    }\n\n    /**\n     * @dev RegistrationRaw Steel Asset InformationFor Call from Trade/Process Contract\n     * @param rawAssetId Raw Steel Asset String\n     * @param key Public Key\n     * @param num Amount/Weight\n     * @param regDate Registration Date\n     * @param origin Asset Source 0 : Registration1 : Trade2 : Process\n     * @param originId Source String Trade/Process\n     * @return id Raw Steel Asset String\n     */\n    function createSteelRawAssetByManager(bytes32 rawAssetId, address key, uint num, uint regDate, uint8 origin, bytes32 originId) public returns (bytes32) {\n        require(isSteelManager(msg.sender));\n        return _createSteelRawAsset(key, rawAssetList[rawAssetId].rawArvId, rawAssetList[rawAssetId].furnace\n            , rawAssetList[rawAssetId].batch, rawAssetList[rawAssetId].structure, num, regDate, origin, originId);\n    }\n\n    /**\n     * @dev RegistrationSteel Asset InformationCreate New Asset for Process Contract\n     * @param key Public Key\n     * @param productArvId Steel Product Profile String\n     * @param processArvId Steel Product Process Profile String\n     * @param num Amount\n     * @param regDate Registration Date\n     * @param origin Asset Source 0 : Registration1 : Trade2 : Process\n     * @param originId Source String Trade/Process\n     * @return id Steel Asset String\n     */\n    function createSteelProductAsset(address key, bytes32 productArvId, bytes32 processArvId, uint num, uint regDate, uint8 origin, bytes32 originId) public returns (bytes32) {\n        require(isSteelManager(msg.sender));\n        return _createSteelProductAsset(key, productArvId, processArvId, num, regDate, origin, originId);\n    }\n\n    /**\n     * @dev RegistrationSteel Asset InformationFor Call from Trade/Process Contract\n     * @param productAssetId Steel Asset String\n     * @param key Public Key\n     * @param num Amount\n     * @param regDate Registration Date\n     * @param origin Asset Source 0 : Registration1 : Trade2 : Process\n     * @param originId Source String Trade/Process\n     * @return id Steel Asset String\n     */\n    function createSteelProductAssetByManager(bytes32 productAssetId, address key, uint num, uint regDate, uint8 origin, bytes32 originId) public returns (bytes32) {\n        require(isSteelManager(msg.sender));\n        return _createSteelProductAsset(key, productAssetList[productAssetId].productArvId, productAssetList[productAssetId].processArvId, num, regDate, origin, originId);\n    }\n\n    /**\n     * @dev Burn Raw Steel Registration InformationFor Call from Trade/Process Contract\n     * @param rawAssetId Raw Steel Asset String\n     * @param date Burn Date\n     * @return Succeed or Not\n     */\n    function deleteSteelRawAsset(bytes32 rawAssetId, uint date) public returns(bool) {\n        require(isSteelManager(msg.sender));\n        return _deleteSteelRawAsset(rawAssetId, date);\n    }\n\n    /**\n     * @dev Burn Steel Product Asset Registration InformationFor Call from Trade/Process Contract\n     * @param productAssetId Steel Asset String\n     * @param date Burn Date\n     * @return Succeed or Not\n     */\n    function deleteSteelProductAsset(bytes32 productAssetId, uint date) public returns(bool) {\n        require(isSteelManager(msg.sender));\n        return _deleteSteelProductAsset(productAssetId, date);\n    }\n    \n    /**\n     * @dev Get Raw Steel Asset Information\n     * @param id Raw Steel Asset String\n     * @return id Raw Steel Asset String\n     * @return key Public Key\n     * @return rawArvId Raw Steel Profile String\n     * @return furnace Heat No\n     * @return batch Batch No\n     * @return structure Fundamental organization\n     * @return num Amount/Weight\n     * @return regDate Registration Date\n     * @return origin Asset Source 0 : Registration1 : Trade2 : Process\n     * @return originId Source String Trade/Process\n     * @return isDel Burn or Not\n     * @return delDate Burn Date\n     */\n    function getSteelRawAsset(bytes32 id) public view returns (bytes32, address, bytes32, bytes32, bytes32, string memory, uint, uint, uint8, bytes32, bool, uint) {\n        SteelRawAsset memory asset = rawAssetList[id];\n        return(asset.id, asset.key, asset.rawArvId, asset.furnace, asset.batch, asset.structure, asset.num, asset.regDate, asset.origin, asset.originId, asset.isDel, asset.delDate);\n    }\n\n    /**\n     * @dev Get Steel Asset Information\n     * @param id Steel Asset String\n     * @return id Steel Asset String\n     * @return key Public Key\n     * @return productArvId Steel Product Profile String\n     * @return processArvId Steel Product Process Profile String\n     * @return num Amount/Weight\n     * @return regDate Registration Date\n     * @return origin Asset Source 0 : Registration1 : Trade2 : Process\n     * @return originId Source String Trade/Process \n     * @return isDel Burn or Not\n     * @return delDate Burn Date\n     */\n    function getSteelProductAsset(bytes32 id) public view returns (bytes32, address, bytes32, bytes32, uint, uint, uint8, bytes32, bool, uint) {\n        SteelProductAsset memory asset = productAssetList[id];\n        return(asset.id, asset.key, asset.productArvId, asset.processArvId, asset.num, asset.regDate, asset.origin, asset.originId, asset.isDel, asset.delDate);\n    }\n\n    /**\n     * @dev Registration Raw Steel Asset InformationInternal Call\n     * @param key Public Key\n     * @param rawArvId Raw Steel Profile String\n     * @param furnace Heat No\n     * @param batch Batch No\n     * @param structure Fundamental organization\n     * @param num Amount/Weight\n     * @param regDate Registration Date\n     * @param origin Asset Source 0 : Registration1 : Trade2 : Process\n     * @param originId Source String Trade/Process\n     * @return id Raw Steel Asset String\n     */\n    function _createSteelRawAsset(address key, bytes32 rawArvId, bytes32 furnace, bytes32 batch, string memory structure, uint num, uint regDate, uint8 origin, bytes32 originId) internal returns (bytes32) {\n        require(num > 0, \"Num must be greater than 0\");\n        bytes32 id = keccak256(abi.encode(key, rawArvId, furnace, batch, bytes(structure), num, regDate));\n        require(rawAssetList[id].id == bytes32(0), \"The raw asset id already exists\");\n        rawAssetList[id].id = id;\n        rawAssetList[id].key = key;\n        rawAssetList[id].rawArvId = rawArvId;\n        rawAssetList[id].furnace = furnace;\n        rawAssetList[id].batch = batch;\n        rawAssetList[id].structure = structure;\n        rawAssetList[id].num = num;\n        rawAssetList[id].regDate = regDate;\n        rawAssetList[id].origin = origin;\n        rawAssetList[id].originId = originId;\n        emit SteelRawAssetCreate(key, rawArvId, id, furnace, batch, structure, num, regDate, origin, originId);\n        return id;\n    }\n\n    /**\n     * @dev RegistrationSteel Asset InformationInternal Call\n     * @param key Public Key\n     * @param productArvId Steel Product Profile String\n     * @param processArvId Steel Product Process Profile String\n     * @param num Amount\n     * @param regDate Registration Date\n     * @param origin Asset Source 0 : Registration1 : Trade2 : Process\n     * @param originId Source String Trade/Process\n     * @return id Steel Asset String\n     */\n    function _createSteelProductAsset(address key, bytes32 productArvId, bytes32 processArvId, uint num, uint regDate, uint8 origin, bytes32 originId) internal returns (bytes32) {\n        require(num > 0, \"Num must be greater than 0\");\n        bytes32 id = keccak256(abi.encode(key, productArvId, processArvId, num, regDate));\n        require(rawAssetList[id].id == bytes32(0), \"The product asset id already exists\");\n        productAssetList[id].id = id;\n        productAssetList[id].key = key;\n        productAssetList[id].productArvId = productArvId;\n        productAssetList[id].processArvId = processArvId;\n        productAssetList[id].num = num;\n        productAssetList[id].regDate = regDate;\n        productAssetList[id].origin = origin;\n        productAssetList[id].originId = originId;\n        emit SteelProductAssetCreate(key, productArvId, id, processArvId, num, regDate, origin, originId);\n        return id;\n    }\n    \n    /**\n     * @dev Burn Raw Steel Asset Registration InformationInternal Call\n     * @param rawAssetId Raw Steel Asset String\n     * @param date Burn Date\n     * @return Succeed or Not\n     */\n    function _deleteSteelRawAsset(bytes32 rawAssetId, uint date) internal returns(bool) {\n        rawAssetList[rawAssetId].isDel = true;\n        rawAssetList[rawAssetId].delDate = date;\n        emit SteelRawAssetDelete(rawAssetId, date);\n        return true;\n    }\n\n    /**\n     * @dev Burn Steel Product Asset Registration InformationInternal Call\n     * @param productAssetId Steel Asset String\n     * @param date Burn Date\n     * @return Succeed or Not\n     */\n    function _deleteSteelProductAsset(bytes32 productAssetId, uint date) internal returns(bool) {\n        productAssetList[productAssetId].isDel = true;\n        productAssetList[productAssetId].delDate = date;\n        emit SteelProductAssetDelete(productAssetId, date);\n        return true;\n    }\n}",
  "sourcePath": "C:\\Users\\davy\\Desktop\\steel-asset-contract\\contracts\\SteelAssetManager.sol",
  "compiler": {
    "name": "solc",
    "version": "0.7.6+commit.7338295f.Emscripten.clang"
  },
  "schemaVersion": "3.4.0",
  "updatedAt": "2022-09-09T04:01:55.083Z",
  "devdoc": {
    "details": "Used to register asset information such as raw steel and steel products",
    "kind": "dev",
    "methods": {
      "createSteelManager(address)": {
        "details": "Create Steel Asset Operate Contract",
        "params": {
          "steelManager": "Steel Asset Operate Contract Address"
        },
        "returns": {
          "_0": "Succeed or Not"
        }
      },
      "createSteelProductAsset(address,bytes32,bytes32,uint256,uint256,uint8,bytes32)": {
        "details": "RegistrationSteel Asset InformationCreate New Asset for Process Contract",
        "params": {
          "key": "Public Key",
          "num": "Amount",
          "origin": "Asset Source 0 : Registration1 : Trade2 : Process",
          "originId": "Source String Trade/Process",
          "processArvId": "Steel Product Process Profile String",
          "productArvId": "Steel Product Profile String",
          "regDate": "Registration Date"
        },
        "returns": {
          "_0": "id Steel Asset String"
        }
      },
      "createSteelProductAssetByManager(bytes32,address,uint256,uint256,uint8,bytes32)": {
        "details": "RegistrationSteel Asset InformationFor Call from Trade/Process Contract",
        "params": {
          "key": "Public Key",
          "num": "Amount",
          "origin": "Asset Source 0 : Registration1 : Trade2 : Process",
          "originId": "Source String Trade/Process",
          "productAssetId": "Steel Asset String",
          "regDate": "Registration Date"
        },
        "returns": {
          "_0": "id Steel Asset String"
        }
      },
      "createSteelRawAsset(bytes32,bytes32,bytes32,string,uint256)": {
        "details": "RegistrationRaw Steel Asset Information",
        "params": {
          "batch": "Batch No",
          "furnace": "Heat No",
          "num": "Amount/Weight",
          "rawArvId": "Raw Steel Profile String",
          "structure": "Fundamental organization"
        },
        "returns": {
          "_0": "id Raw Steel Asset String"
        }
      },
      "createSteelRawAssetByManager(bytes32,address,uint256,uint256,uint8,bytes32)": {
        "details": "RegistrationRaw Steel Asset InformationFor Call from Trade/Process Contract",
        "params": {
          "key": "Public Key",
          "num": "Amount/Weight",
          "origin": "Asset Source 0 : Registration1 : Trade2 : Process",
          "originId": "Source String Trade/Process",
          "rawAssetId": "Raw Steel Asset String",
          "regDate": "Registration Date"
        },
        "returns": {
          "_0": "id Raw Steel Asset String"
        }
      },
      "deleteSteelManager(address)": {
        "details": "Delete Steel Asset Operate Contract",
        "params": {
          "steelManager": "Steel Asset Operate Contract Address"
        },
        "returns": {
          "_0": "Succeed or Not"
        }
      },
      "deleteSteelProductAsset(bytes32,uint256)": {
        "details": "Burn Steel Product Asset Registration InformationFor Call from Trade/Process Contract",
        "params": {
          "date": "Burn Date",
          "productAssetId": "Steel Asset String"
        },
        "returns": {
          "_0": "Succeed or Not"
        }
      },
      "deleteSteelRawAsset(bytes32,uint256)": {
        "details": "Burn Raw Steel Registration InformationFor Call from Trade/Process Contract",
        "params": {
          "date": "Burn Date",
          "rawAssetId": "Raw Steel Asset String"
        },
        "returns": {
          "_0": "Succeed or Not"
        }
      },
      "getSteelProductAsset(bytes32)": {
        "details": "Get Steel Asset Information",
        "params": {
          "id": "Steel Asset String"
        },
        "returns": {
          "_0": "id Steel Asset String",
          "_1": "key Public Key",
          "_2": "productArvId Steel Product Profile String",
          "_3": "processArvId Steel Product Process Profile String",
          "_4": "num Amount/Weight",
          "_5": "regDate Registration Date",
          "_6": "origin Asset Source 0 : Registration1 : Trade2 : Process",
          "_7": "originId Source String Trade/Process ",
          "_8": "isDel Burn or Not",
          "_9": "delDate Burn Date"
        }
      },
      "getSteelRawAsset(bytes32)": {
        "details": "Get Raw Steel Asset Information",
        "params": {
          "id": "Raw Steel Asset String"
        },
        "returns": {
          "_0": "id Raw Steel Asset String",
          "_1": "key Public Key",
          "_10": "isDel Burn or Not",
          "_11": "delDate Burn Date",
          "_2": "rawArvId Raw Steel Profile String",
          "_3": "furnace Heat No",
          "_4": "batch Batch No",
          "_5": "structure Fundamental organization",
          "_6": "num Amount/Weight",
          "_7": "regDate Registration Date",
          "_8": "origin Asset Source 0 : Registration1 : Trade2 : Process",
          "_9": "originId Source String Trade/Process"
        }
      },
      "isSteelManager(address)": {
        "details": "Query if Steel Asset Operate Contract",
        "params": {
          "steelManager": "Steel Asset Operate Contract Address"
        },
        "returns": {
          "_0": "Yes or No"
        }
      }
    },
    "title": "Steel Asset Registration Centre",
    "version": 1
  },
  "userdoc": {
    "kind": "user",
    "methods": {},
    "version": 1
  }
}