{
  "contractName": "SteelProcessManager",
  "abi": [
    {
      "inputs": [
        {
          "internalType": "address",
          "name": "_steelAssetManager",
          "type": "address"
        }
      ],
      "stateMutability": "nonpayable",
      "type": "constructor"
    },
    {
      "anonymous": false,
      "inputs": [
        {
          "indexed": true,
          "internalType": "address",
          "name": "key",
          "type": "address"
        },
        {
          "indexed": true,
          "internalType": "bytes32",
          "name": "processArvId",
          "type": "bytes32"
        },
        {
          "indexed": true,
          "internalType": "bytes32",
          "name": "productAssetId",
          "type": "bytes32"
        },
        {
          "indexed": false,
          "internalType": "bytes32[]",
          "name": "rawAssetIdList",
          "type": "bytes32[]"
        },
        {
          "indexed": false,
          "internalType": "bytes32[]",
          "name": "productAssetIdList",
          "type": "bytes32[]"
        },
        {
          "indexed": false,
          "internalType": "uint256",
          "name": "num",
          "type": "uint256"
        },
        {
          "indexed": false,
          "internalType": "uint256",
          "name": "date",
          "type": "uint256"
        },
        {
          "indexed": false,
          "internalType": "bytes32",
          "name": "processId",
          "type": "bytes32"
        },
        {
          "indexed": false,
          "internalType": "bytes32[]",
          "name": "newRawAssetIdList",
          "type": "bytes32[]"
        },
        {
          "indexed": false,
          "internalType": "bytes32[]",
          "name": "newProductAssetIdList",
          "type": "bytes32[]"
        }
      ],
      "name": "SteelProductAssetProcess",
      "type": "event"
    },
    {
      "inputs": [],
      "name": "steelArchiveManager",
      "outputs": [
        {
          "internalType": "contract SteelArchiveManager",
          "name": "",
          "type": "address"
        }
      ],
      "stateMutability": "view",
      "type": "function"
    },
    {
      "inputs": [],
      "name": "steelAssetManager",
      "outputs": [
        {
          "internalType": "contract SteelAssetManager",
          "name": "",
          "type": "address"
        }
      ],
      "stateMutability": "view",
      "type": "function"
    },
    {
      "inputs": [
        {
          "internalType": "bytes32",
          "name": "processArvId",
          "type": "bytes32"
        },
        {
          "internalType": "bytes32[]",
          "name": "rawAssetIdList",
          "type": "bytes32[]"
        },
        {
          "internalType": "bytes32[]",
          "name": "productAssetIdList",
          "type": "bytes32[]"
        },
        {
          "internalType": "uint256",
          "name": "num",
          "type": "uint256"
        }
      ],
      "name": "processSteelProductAsset",
      "outputs": [
        {
          "internalType": "bytes32",
          "name": "",
          "type": "bytes32"
        },
        {
          "internalType": "bytes32",
          "name": "",
          "type": "bytes32"
        },
        {
          "internalType": "bytes32[]",
          "name": "",
          "type": "bytes32[]"
        },
        {
          "internalType": "bytes32[]",
          "name": "",
          "type": "bytes32[]"
        }
      ],
      "stateMutability": "nonpayable",
      "type": "function"
    },
    {
      "inputs": [
        {
          "internalType": "bytes32",
          "name": "id",
          "type": "bytes32"
        }
      ],
      "name": "getSteelProductProcess",
      "outputs": [
        {
          "internalType": "bytes32",
          "name": "",
          "type": "bytes32"
        },
        {
          "internalType": "address",
          "name": "",
          "type": "address"
        },
        {
          "internalType": "bytes32",
          "name": "",
          "type": "bytes32"
        },
        {
          "internalType": "bytes32[]",
          "name": "",
          "type": "bytes32[]"
        },
        {
          "internalType": "bytes32[]",
          "name": "",
          "type": "bytes32[]"
        },
        {
          "internalType": "uint256",
          "name": "",
          "type": "uint256"
        },
        {
          "internalType": "uint256",
          "name": "",
          "type": "uint256"
        }
      ],
      "stateMutability": "view",
      "type": "function"
    }
  ],
  "bytecode": "0x608060405234801561001057600080fd5b50604051620027c0380380620027c08339818101604052602081101561003557600080fd5b810190808051906020019092919050505080600160006101000a81548173ffffffffffffffffffffffffffffffffffffffff021916908373ffffffffffffffffffffffffffffffffffffffff160217905550600160009054906101000a900473ffffffffffffffffffffffffffffffffffffffff1673ffffffffffffffffffffffffffffffffffffffff16636357e6e16040518163ffffffff167c010000000000000000000000000000000000000000000000000000000002815260040160206040518083038186803b15801561010b57600080fd5b505afa15801561011f573d6000803e3d6000fd5b505050506040513d602081101561013557600080fd5b8101908080519060200190929190505050600260006101000a81548173ffffffffffffffffffffffffffffffffffffffff021916908373ffffffffffffffffffffffffffffffffffffffff1602179055505061262980620001976000396000f3fe608060405234801561001057600080fd5b5060043610610069576000357c010000000000000000000000000000000000000000000000000000000090048063020b83381461006e57806318ac9dc7146100a25780636357e6e1146102ad5780638e2847b1146102e1575b600080fd5b6100766103e5565b604051808273ffffffffffffffffffffffffffffffffffffffff16815260200191505060405180910390f35b610200600480360360808110156100b857600080fd5b8101908080359060200190929190803590602001906401000000008111156100df57600080fd5b8201836020820111156100f157600080fd5b8035906020019184602083028401116401000000008311171561011357600080fd5b919080806020026020016040519081016040528093929190818152602001838360200280828437600081840152601f19601f8201169050808301925050505050505091929192908035906020019064010000000081111561017357600080fd5b82018360208201111561018557600080fd5b803590602001918460208302840111640100000000831117156101a757600080fd5b919080806020026020016040519081016040528093929190818152602001838360200280828437600081840152601f19601f8201169050808301925050505050505091929192908035906020019092919050505061040b565b604051808581526020018481526020018060200180602001838103835285818151815260200191508051906020019060200280838360005b83811015610253578082015181840152602081019050610238565b50505050905001838103825284818151815260200191508051906020019060200280838360005b8381101561029557808201518184015260208101905061027a565b50505050905001965050505050505060405180910390f35b6102b5610667565b604051808273ffffffffffffffffffffffffffffffffffffffff16815260200191505060405180910390f35b61030d600480360360208110156102f757600080fd5b810190808035906020019092919050505061068d565b604051808881526020018773ffffffffffffffffffffffffffffffffffffffff1681526020018681526020018060200180602001858152602001848152602001838103835287818151815260200191508051906020019060200280838360005b8381101561038857808201518184015260208101905061036d565b50505050905001838103825286818151815260200191508051906020019060200280838360005b838110156103ca5780820151818401526020810190506103af565b50505050905001995050505050505050505060405180910390f35b600160009054906101000a900473ffffffffffffffffffffffffffffffffffffffff1681565b60008060608060008511610487576040517f08c379a000000000000000000000000000000000000000000000000000000000815260040180806020018281038252601e8152602001807f546865206e756d206d7573742062652067726561746572207468616e2030000081525060200191505060405180910390fd5b6000610497338a8a8a8a42610824565b905060006104a78a8a8985610a2e565b905060006104b78b8a8a86610f7a565b905060006104c68c8a866114c6565b9050808c3373ffffffffffffffffffffffffffffffffffffffff167fa20a8b4a09715bc2485e5f4e6224379c6ea950478ad05394a0c9b2f6b502d2ea8e8e8e428b8b8b604051808060200180602001888152602001878152602001868152602001806020018060200185810385528c818151815260200191508051906020019060200280838360005b8381101561056a57808201518184015260208101905061054f565b5050505090500185810384528b818151815260200191508051906020019060200280838360005b838110156105ac578082015181840152602081019050610591565b50505050905001858103835287818151815260200191508051906020019060200280838360005b838110156105ee5780820151818401526020810190506105d3565b50505050905001858103825286818151815260200191508051906020019060200280838360005b83811015610630578082015181840152602081019050610615565b505050509050019b50505050505050505050505060405180910390a483818484975097509750975050505050945094509450949050565b600260009054906101000a900473ffffffffffffffffffffffffffffffffffffffff1681565b600080600060608060008060008060008a81526020019081526020016000206040518060e0016040529081600082015481526020016001820160009054906101000a900473ffffffffffffffffffffffffffffffffffffffff1673ffffffffffffffffffffffffffffffffffffffff1673ffffffffffffffffffffffffffffffffffffffff168152602001600282015481526020016003820180548060200260200160405190810160405280929190818152602001828054801561077057602002820191906000526020600020905b81548152602001906001019080831161075c575b50505050508152602001600482018054806020026020016040519081016040528092919081815260200182805480156107c857602002820191906000526020600020905b8154815260200190600101908083116107b4575b50505050508152602001600582015481526020016006820154815250509050806000015181602001518260400151836060015184608001518560a001518660c00151975097509750975097509750975050919395979092949650565b600080878787878742604051602001808773ffffffffffffffffffffffffffffffffffffffff1681526020018681526020018060200180602001858152602001848152602001838103835287818151815260200191508051906020019060200280838360005b838110156108a557808201518184015260208101905061088a565b50505050905001838103825286818151815260200191508051906020019060200280838360005b838110156108e75780820151818401526020810190506108cc565b505050509050019850505050505050505060405160208183030381529060405280519060200120905080600080838152602001908152602001600020600001819055508760008083815260200190815260200160002060010160006101000a81548173ffffffffffffffffffffffffffffffffffffffff021916908373ffffffffffffffffffffffffffffffffffffffff16021790555086600080838152602001908152602001600020600201819055508560008083815260200190815260200160002060030190805190602001906109c19291906124b2565b508460008083815260200190815260200160002060040190805190602001906109eb9291906124b2565b5083600080838152602001908152602001600020600501819055508260008083815260200190815260200160002060060181905550809150509695505050505050565b60606000806000600260009054906101000a900473ffffffffffffffffffffffffffffffffffffffff1673ffffffffffffffffffffffffffffffffffffffff166391d92510896040518263ffffffff167c01000000000000000000000000000000000000000000000000000000000281526004018082815260200191505060006040518083038186803b158015610ac457600080fd5b505afa158015610ad8573d6000803e3d6000fd5b505050506040513d6000823e3d601f19601f82011682018060405250610140811015610b0357600080fd5b8101908080519060200190929190805190602001909291908051906020019092919080516040519392919084640100000000821115610b4157600080fd5b83820191506020820185811115610b5757600080fd5b8251866001820283011164010000000082111715610b7457600080fd5b8083526020830192505050908051906020019080838360005b83811015610ba8578082015181840152602081019050610b8d565b50505050905090810190601f168015610bd55780820380516001836020036101000a031916815260200191505b506040526020018051906020019092919080516040519392919084640100000000821115610c0257600080fd5b83820191506020820185811115610c1857600080fd5b8251866020820283011164010000000082111715610c3557600080fd5b8083526020830192505050908051906020019060200280838360005b83811015610c6c578082015181840152602081019050610c51565b5050505090500160405260200180516040519392919084640100000000821115610c9557600080fd5b83820191506020820185811115610cab57600080fd5b8251866020820283011164010000000082111715610cc857600080fd5b8083526020830192505050908051906020019060200280838360005b83811015610cff578082015181840152602081019050610ce4565b5050505090500160405260200180516040519392919084640100000000821115610d2857600080fd5b83820191506020820185811115610d3e57600080fd5b8251866020820283011164010000000082111715610d5b57600080fd5b8083526020830192505050908051906020019060200280838360005b83811015610d92578082015181840152602081019050610d77565b5050505090500160405260200180516040519392919084640100000000821115610dbb57600080fd5b83820191506020820185811115610dd157600080fd5b8251866020820283011164010000000082111715610dee57600080fd5b8083526020830192505050908051906020019060200280838360005b83811015610e25578082015181840152602081019050610e0a565b5050505090500160405260200180519060200190929190505050995050509750975050505050508251875114610ea6576040517f08c379a000000000000000000000000000000000000000000000000000000000815260040180806020018281038252602f81526020018061251d602f913960400191505060405180910390fd5b6000875167ffffffffffffffff81118015610ec057600080fd5b50604051908082528060200260200182016040528015610eef5781602001602082028036833780820191505090505b50905060005b8851811015610f6a57610f45898281518110610f0d57fe5b602002602001015189878481518110610f2257fe5b6020026020010151878581518110610f3657fe5b6020026020010151878c6119fb565b828281518110610f5157fe5b6020026020010181815250508080600101915050610ef5565b5080945050505050949350505050565b60606000806000600260009054906101000a900473ffffffffffffffffffffffffffffffffffffffff1673ffffffffffffffffffffffffffffffffffffffff166391d92510896040518263ffffffff167c01000000000000000000000000000000000000000000000000000000000281526004018082815260200191505060006040518083038186803b15801561101057600080fd5b505afa158015611024573d6000803e3d6000fd5b505050506040513d6000823e3d601f19601f8201168201806040525061014081101561104f57600080fd5b810190808051906020019092919080519060200190929190805190602001909291908051604051939291908464010000000082111561108d57600080fd5b838201915060208201858111156110a357600080fd5b82518660018202830111640100000000821117156110c057600080fd5b8083526020830192505050908051906020019080838360005b838110156110f45780820151818401526020810190506110d9565b50505050905090810190601f1680156111215780820380516001836020036101000a031916815260200191505b50604052602001805190602001909291908051604051939291908464010000000082111561114e57600080fd5b8382019150602082018581111561116457600080fd5b825186602082028301116401000000008211171561118157600080fd5b8083526020830192505050908051906020019060200280838360005b838110156111b857808201518184015260208101905061119d565b50505050905001604052602001805160405193929190846401000000008211156111e157600080fd5b838201915060208201858111156111f757600080fd5b825186602082028301116401000000008211171561121457600080fd5b8083526020830192505050908051906020019060200280838360005b8381101561124b578082015181840152602081019050611230565b505050509050016040526020018051604051939291908464010000000082111561127457600080fd5b8382019150602082018581111561128a57600080fd5b82518660208202830111640100000000821117156112a757600080fd5b8083526020830192505050908051906020019060200280838360005b838110156112de5780820151818401526020810190506112c3565b505050509050016040526020018051604051939291908464010000000082111561130757600080fd5b8382019150602082018581111561131d57600080fd5b825186602082028301116401000000008211171561133a57600080fd5b8083526020830192505050908051906020019060200280838360005b83811015611371578082015181840152602081019050611356565b50505050905001604052602001805190602001909291905050509950995099505050505050505082518751146113f2576040517f08c379a000000000000000000000000000000000000000000000000000000000815260040180806020018281038252603681526020018061259a6036913960400191505060405180910390fd5b6000875167ffffffffffffffff8111801561140c57600080fd5b5060405190808252806020026020018201604052801561143b5781602001602082028036833780820191505090505b50905060005b88518110156114b65761149189828151811061145957fe5b60200260200101518987848151811061146e57fe5b602002602001015187858151811061148257fe5b6020026020010151878c611fb9565b82828151811061149d57fe5b6020026020010181815250508080600101915050611441565b5080945050505050949350505050565b600080600260009054906101000a900473ffffffffffffffffffffffffffffffffffffffff1673ffffffffffffffffffffffffffffffffffffffff166391d92510866040518263ffffffff167c01000000000000000000000000000000000000000000000000000000000281526004018082815260200191505060006040518083038186803b15801561155857600080fd5b505afa15801561156c573d6000803e3d6000fd5b505050506040513d6000823e3d601f19601f8201168201806040525061014081101561159757600080fd5b81019080805190602001909291908051906020019092919080519060200190929190805160405193929190846401000000008211156115d557600080fd5b838201915060208201858111156115eb57600080fd5b825186600182028301116401000000008211171561160857600080fd5b8083526020830192505050908051906020019080838360005b8381101561163c578082015181840152602081019050611621565b50505050905090810190601f1680156116695780820380516001836020036101000a031916815260200191505b50604052602001805190602001909291908051604051939291908464010000000082111561169657600080fd5b838201915060208201858111156116ac57600080fd5b82518660208202830111640100000000821117156116c957600080fd5b8083526020830192505050908051906020019060200280838360005b838110156117005780820151818401526020810190506116e5565b505050509050016040526020018051604051939291908464010000000082111561172957600080fd5b8382019150602082018581111561173f57600080fd5b825186602082028301116401000000008211171561175c57600080fd5b8083526020830192505050908051906020019060200280838360005b83811015611793578082015181840152602081019050611778565b50505050905001604052602001805160405193929190846401000000008211156117bc57600080fd5b838201915060208201858111156117d257600080fd5b82518660208202830111640100000000821117156117ef57600080fd5b8083526020830192505050908051906020019060200280838360005b8381101561182657808201518184015260208101905061180b565b505050509050016040526020018051604051939291908464010000000082111561184f57600080fd5b8382019150602082018581111561186557600080fd5b825186602082028301116401000000008211171561188257600080fd5b8083526020830192505050908051906020019060200280838360005b838110156118b957808201518184015260208101905061189e565b50505050905001604052602001805190602001909291905050505050505050945050505050600160009054906101000a900473ffffffffffffffffffffffffffffffffffffffff1673ffffffffffffffffffffffffffffffffffffffff1663ec52e72b338388884260028a6040518863ffffffff167c0100000000000000000000000000000000000000000000000000000000028152600401808873ffffffffffffffffffffffffffffffffffffffff168152602001878152602001868152602001858152602001848152602001838152602001828152602001975050505050505050602060405180830381600087803b1580156119b657600080fd5b505af11580156119ca573d6000803e3d6000fd5b505050506040513d60208110156119e057600080fd5b81019080805190602001909291905050509150509392505050565b6000806000806000600160009054906101000a900473ffffffffffffffffffffffffffffffffffffffff1673ffffffffffffffffffffffffffffffffffffffff1663d2bee76a8c6040518263ffffffff167c01000000000000000000000000000000000000000000000000000000000281526004018082815260200191505060006040518083038186803b158015611a9257600080fd5b505afa158015611aa6573d6000803e3d6000fd5b505050506040513d6000823e3d601f19601f82011682018060405250610180811015611ad157600080fd5b81019080805190602001909291908051906020019092919080519060200190929190805190602001909291908051906020019092919080516040519392919084640100000000821115611b2357600080fd5b83820191506020820185811115611b3957600080fd5b8251866001820283011164010000000082111715611b5657600080fd5b8083526020830192505050908051906020019080838360005b83811015611b8a578082015181840152602081019050611b6f565b50505050905090810190601f168015611bb75780820380516001836020036101000a031916815260200191505b50604052602001805190602001909291908051906020019092919080519060200190929190805190602001909291908051906020019092919080519060200190929190505050509a50505050975050505094509450503373ffffffffffffffffffffffffffffffffffffffff168473ffffffffffffffffffffffffffffffffffffffff1614611cae576040517f08c379a000000000000000000000000000000000000000000000000000000000815260040180806020018281038252601b8152602001807f5468652073656e64657220686173206e6f206f776e657273686970000000000081525060200191505060405180910390fd5b8015611d22576040517f08c379a00000000000000000000000000000000000000000000000000000000081526004018080602001828103825260208152602001807f496e7075742072617720617373657420686173206265656e2064656c6574656481525060200191505060405180910390fd5b888314611d7a576040517f08c379a00000000000000000000000000000000000000000000000000000000081526004018080602001828103825260258152602001806125756025913960400191505060405180910390fd5b600160009054906101000a900473ffffffffffffffffffffffffffffffffffffffff1673ffffffffffffffffffffffffffffffffffffffff166382a42c178c426040518363ffffffff167c01000000000000000000000000000000000000000000000000000000000281526004018083815260200182815260200192505050602060405180830381600087803b158015611e1357600080fd5b505af1158015611e27573d6000803e3d6000fd5b505050506040513d6020811015611e3d57600080fd5b810190808051906020019092919050505050611e86611e7788611e698b8e61248490919063ffffffff16565b61249190919063ffffffff16565b836124a590919063ffffffff16565b915060008060010290506000831115611fa757600160009054906101000a900473ffffffffffffffffffffffffffffffffffffffff1673ffffffffffffffffffffffffffffffffffffffff16637cd7090d8d33864260028d6040518763ffffffff167c0100000000000000000000000000000000000000000000000000000000028152600401808781526020018673ffffffffffffffffffffffffffffffffffffffff1681526020018581526020018481526020018381526020018281526020019650505050505050602060405180830381600087803b158015611f6957600080fd5b505af1158015611f7d573d6000803e3d6000fd5b505050506040513d6020811015611f9357600080fd5b810190808051906020019092919050505090505b80955050505050509695505050505050565b6000806000806000600160009054906101000a900473ffffffffffffffffffffffffffffffffffffffff1673ffffffffffffffffffffffffffffffffffffffff166362b4dbf98c6040518263ffffffff167c0100000000000000000000000000000000000000000000000000000000028152600401808281526020019150506101406040518083038186803b15801561205157600080fd5b505afa158015612065573d6000803e3d6000fd5b505050506040513d61014081101561207c57600080fd5b810190808051906020019092919080519060200190929190805190602001909291908051906020019092919080519060200190929190805190602001909291908051906020019092919080519060200190929190805190602001909291908051906020019092919050505050985050505095505094509450503373ffffffffffffffffffffffffffffffffffffffff168473ffffffffffffffffffffffffffffffffffffffff1614612196576040517f08c379a000000000000000000000000000000000000000000000000000000000815260040180806020018281038252601b8152602001807f5468652073656e64657220686173206e6f206f776e657273686970000000000081525060200191505060405180910390fd5b80156121ed576040517f08c379a00000000000000000000000000000000000000000000000000000000081526004018080602001828103825260248152602001806125d06024913960400191505060405180910390fd5b888314612245576040517f08c379a000000000000000000000000000000000000000000000000000000000815260040180806020018281038252602981526020018061254c6029913960400191505060405180910390fd5b600160009054906101000a900473ffffffffffffffffffffffffffffffffffffffff1673ffffffffffffffffffffffffffffffffffffffff1663db852c9d8c426040518363ffffffff167c01000000000000000000000000000000000000000000000000000000000281526004018083815260200182815260200192505050602060405180830381600087803b1580156122de57600080fd5b505af11580156122f2573d6000803e3d6000fd5b505050506040513d602081101561230857600080fd5b810190808051906020019092919050505050612351612342886123348b8e61248490919063ffffffff16565b61249190919063ffffffff16565b836124a590919063ffffffff16565b91506000806001029050600083111561247257600160009054906101000a900473ffffffffffffffffffffffffffffffffffffffff1673ffffffffffffffffffffffffffffffffffffffff16633a3e60238d33864260028d6040518763ffffffff167c0100000000000000000000000000000000000000000000000000000000028152600401808781526020018673ffffffffffffffffffffffffffffffffffffffff1681526020018581526020018481526020018381526020018281526020019650505050505050602060405180830381600087803b15801561243457600080fd5b505af1158015612448573d6000803e3d6000fd5b505050506040513d602081101561245e57600080fd5b810190808051906020019092919050505090505b80955050505050509695505050505050565b6000818302905092915050565b600081838161249c57fe5b04905092915050565b6000818303905092915050565b8280548282559060005260206000209081019282156124ee579160200282015b828111156124ed5782518255916020019190600101906124d2565b5b5090506124fb91906124ff565b5090565b5b80821115612518576000816000905550600101612500565b509056fe496e70757420726177206173736574206964206c697374206d757374206d617463682061726368697665206c697374496e7075742070726f64756374206173736574206d757374206d617463682061726368697665206964496e70757420726177206173736574206d757374206d617463682061726368697665206964496e7075742070726f64756374206173736574206964206c697374206d757374206265206d617463682061726368697665206c697374496e7075742070726f6475637420617373657420686173206265656e2064656c65746564a26469706673582212202adf4a66a2adc802b3461a4aa4d799fe4f42ecdcaaa6ca30f1b6dc46e4ce4f7964736f6c63430007060033",
  "immutableReferences": {},
  "source": "// SPDX-License-Identifier: MIT\r\npragma solidity >=0.4.22 <0.9.0;\r\n\r\nimport \"./lib/math/SafeMath.sol\";\r\nimport \"./SteelArchiveManager.sol\";\r\nimport \"./SteelAssetManager.sol\";\r\n\r\n/**\r\n * @title Steel Asset Process Centre\r\n * @dev For Process Steel Product Asset\r\n */\r\ncontract SteelProcessManager {\r\n    \r\n    //library\r\n    using SafeMath for uint256;\r\n    \r\n    // Steel Product Asset Process Information\r\n    struct SteelProductProcess {\r\n        // Steel Product Asset Process String\r\n        bytes32 id;\r\n        // Public Key\r\n        address Key;\r\n        // Process Profile String\r\n        bytes32 processArvId;\r\n        // Raw Steel Asset Input String List\r\n        bytes32[] rawAssetIdList;\r\n        // Steel Product Asset Input String List\r\n        bytes32[] productAssetIdList;\r\n        // Output Amount\r\n        uint num;\r\n        // Process\r\n        uint date;\r\n    }\r\n\r\n    // Steel Product Asset Process List\r\n    mapping (bytes32 => SteelProductProcess) productProcessList;\r\n\r\n    // Rely On Steel Asset Registration Centre\r\n    SteelAssetManager public steelAssetManager;\r\n    // Rely On Steel Asset Registration Centre\r\n    SteelArchiveManager public steelArchiveManager;\r\n\r\n    // Init Function\r\n    constructor(address _steelAssetManager) {\r\n        steelAssetManager = SteelAssetManager(_steelAssetManager);\r\n        steelArchiveManager = steelAssetManager.steelArchiveManager();\r\n    }\r\n\r\n    // event for EVM logging\r\n    event SteelProductAssetProcess(address indexed key, bytes32 indexed processArvId, bytes32 indexed productAssetId, bytes32[] rawAssetIdList\r\n        , bytes32[] productAssetIdList,uint num, uint date, bytes32 processId, bytes32[] newRawAssetIdList, bytes32[] newProductAssetIdList);\r\n\r\n    /**\r\n     * @dev Process Steel Product Asset \r\n     * @param processArvId Steel Product Process Profile String\r\n     * @param rawAssetIdList Raw Steel Asset Input String List\r\n     * @param productAssetIdList Steel Product Asset Input String List\r\n     * @param num ProcessOutput Amount\r\n     * @return processId Process String\r\n     * @return newAssetId ProcessSteel Asset StringProcess\r\n     * @return newRawAssetIdList Raw Steel Asset String ListCharge\r\n     * @return newProductAssetIdList Steel Asset String ListCharge\r\n     */\r\n    function processSteelProductAsset(bytes32 processArvId, bytes32[] memory rawAssetIdList, bytes32[] memory productAssetIdList, uint num) public returns (bytes32, bytes32, bytes32[] memory, bytes32[] memory) {\r\n        require(num > 0, \"The num must be greater than 0\");\r\n        // Create Steel Product Process Information\r\n        bytes32 processId = _createSteelProductProcesse(msg.sender, processArvId, rawAssetIdList, productAssetIdList, num, block.timestamp);\r\n\r\n        // Process Process Material\r\n        bytes32[] memory newRawAssetIdList = _processRawAssetList(processArvId, rawAssetIdList, num, processId);\r\n        bytes32[] memory newProductAssetIdList = _processProductAssetList(processArvId, productAssetIdList, num, processId);\r\n\r\n        // Create New Asset Registration Information\r\n        bytes32 newAssetId = _createProductAsset(processArvId, num, processId);\r\n\r\n        emit SteelProductAssetProcess(msg.sender, processArvId, newAssetId, rawAssetIdList, productAssetIdList, num, block.timestamp, processId, newRawAssetIdList, newProductAssetIdList);\r\n        return(processId, newAssetId, newRawAssetIdList, newProductAssetIdList);\r\n    }\r\n    \r\n    /**\r\n     * @dev Get Steel Product Asset Process Information\r\n     * @param id Process String\r\n     * @return id Process String\r\n     * @return Key Public Key\r\n     * @return processArvId Steel Product Process Profile String \r\n     * @return rawAssetIdList Raw Steel Asset Input String List\r\n     * @return productAssetIdList Steel Product Asset Input String List\r\n     * @return num ProcessOutput Amount\r\n     * @return date Process Date\r\n     */\r\n    function getSteelProductProcess(bytes32 id) public view returns (bytes32, address, bytes32, bytes32[] memory, bytes32[] memory, uint, uint) {\r\n        SteelProductProcess memory process = productProcessList[id];\r\n        return(process.id, process.Key, process.processArvId, process.rawAssetIdList, process.productAssetIdList, process.num, process.date);\r\n    }\r\n\r\n    /**\r\n     * @dev Create Steel Product Process InformationInternal Call\r\n     * @param key Public Key\r\n     * @param processArvId Steel Product Process Profile String\r\n     * @param rawAssetIdList Raw Steel Asset Input String List\r\n     * @param productAssetIdList Steel Product Asset Input String List\r\n     * @param num ProcessOutput Amount\r\n     * @param date Process Date\r\n     * @return id Steel Product Process String\r\n     */\r\n    function _createSteelProductProcesse(address key, bytes32 processArvId, bytes32[] memory rawAssetIdList, bytes32[] memory productAssetIdList, uint num, uint date) internal returns (bytes32) {\r\n        bytes32 id = keccak256(abi.encode(key, processArvId, rawAssetIdList, productAssetIdList, num, block.timestamp));\r\n        productProcessList[id].id = id;\r\n        productProcessList[id].Key = key;\r\n        productProcessList[id].processArvId = processArvId;\r\n        productProcessList[id].rawAssetIdList = rawAssetIdList;\r\n        productProcessList[id].productAssetIdList = productAssetIdList;\r\n        productProcessList[id].num = num;\r\n        productProcessList[id].date = date;\r\n        return id;\r\n    }\r\n    \r\n    /**\r\n     * @dev Process Create Steel Product AssetInternal Call\r\n     * @param processArvId Steel Product Process Profile String\r\n     * @param num ProcessOutput Amount\r\n     * @param processId Process String\r\n     * @return id ProcessSteel Asset String\r\n     */\r\n    function _createProductAsset(bytes32 processArvId, uint num, bytes32 processId) internal returns (bytes32) {\r\n        // Get Process Profile Info from Process Profile String\r\n        (,,,,bytes32 productArvId,,,,,) = steelArchiveManager.getSteelProcessArchive(processArvId);\r\n        // Create New Asset Registration Information\r\n        return steelAssetManager.createSteelProductAsset(msg.sender, productArvId, processArvId, num, block.timestamp, 2, processId);\r\n    }\r\n\r\n    /**\r\n     * @dev ProcessChargeRaw Steel Asset ListInternal Call\r\n     * @param processArvId Steel Product Process Profile String\r\n     * @param rawAssetIdList Raw Steel Asset Input String List\r\n     * @param num ProcessOutput Amount\r\n     * @param processId Process String\r\n     * @return ids Raw Steel Asset String ListCharge\r\n     */\r\n    function _processRawAssetList(bytes32 processArvId, bytes32[] memory rawAssetIdList, uint num, bytes32 processId) internal returns (bytes32[] memory) {\r\n        (,,,,,bytes32[] memory rawArvIdList,uint[] memory rawArvNumList,,,uint outputNum) = steelArchiveManager.getSteelProcessArchive(processArvId);\r\n        require(rawAssetIdList.length == rawArvIdList.length, \"Input raw asset id list must match archive list\");\r\n        bytes32[] memory ids = new bytes32[](rawAssetIdList.length);\r\n        for(uint i = 0; i < rawAssetIdList.length; i ++) {\r\n            ids[i] = _processRawAsset(rawAssetIdList[i], num, rawArvIdList[i], rawArvNumList[i], outputNum, processId);\r\n        }\r\n        return ids;\r\n    }\r\n    \r\n    /**\r\n     * @dev ProcessCharge Steel Asset ListInternal Call\r\n     * @param processArvId Steel Product Process Profile String\r\n     * @param productAssetIdList Steel Product Asset Input String List\r\n     * @param num ProcessOutput Amount\r\n     * @param processId Process String\r\n     * @return ids Steel Asset String ListCharge\r\n     */\r\n    function _processProductAssetList(bytes32 processArvId, bytes32[] memory productAssetIdList, uint num, bytes32 processId) internal returns (bytes32[] memory) {\r\n        (,,,,,,,bytes32[] memory productArvIdList,uint[] memory productArvNumList,uint outputNum) = steelArchiveManager.getSteelProcessArchive(processArvId);\r\n        require(productAssetIdList.length == productArvIdList.length, \"Input product asset id list must be match archive list\");\r\n        bytes32[] memory ids = new bytes32[](productAssetIdList.length);\r\n        for(uint i = 0; i < productAssetIdList.length; i ++) {\r\n            ids[i] = _processProductAsset(productAssetIdList[i], num, productArvIdList[i], productArvNumList[i], outputNum, processId);\r\n        }\r\n        return ids;\r\n    }\r\n    \r\n    /**\r\n     * @dev Process Charge Raw SteelInternal Call\r\n     * @param rawAssetId Raw Steel Input String\r\n     * @param num ProcessOutput Amount\r\n     * @param processRawArvId Process Profile Raw Steel Input String\r\n     * @param processRawArvNum Process Profile Raw Steel Input Amount\r\n     * @param processOutputNum Process Profile Output Amount\r\n     * @param processId Process String\r\n     * @return id Raw Steel Asset StringCharge\r\n     */\r\n    function _processRawAsset(bytes32 rawAssetId, uint num, bytes32 processRawArvId, uint processRawArvNum, uint processOutputNum, bytes32 processId) internal returns (bytes32) {\r\n        (,address key,bytes32 rawArvId,,,,uint balance,,,,bool isDel,) = steelAssetManager.getSteelRawAsset(rawAssetId);\r\n        require(key == msg.sender, \"The sender has no ownership\");\r\n        require(!isDel, \"Input raw asset has been deleted\");\r\n        require(rawArvId == processRawArvId, \"Input raw asset must match archive id\");\r\n        // Burn Process Material Information\r\n        steelAssetManager.deleteSteelRawAsset(rawAssetId, block.timestamp);\r\n        // Create Process Material Charge Information\r\n        balance = balance.sub(num.mul(processRawArvNum).div(processOutputNum));\r\n        bytes32 id = bytes32(0);\r\n        if(balance > 0) {\r\n            id = steelAssetManager.createSteelRawAssetByManager(rawAssetId, msg.sender, balance, block.timestamp, 2, processId);\r\n        }\r\n        return id;\r\n    }\r\n\r\n    /**\r\n     * @dev Process Charge Steel Product AssetInternal Call\r\n     * @param productAssetId Steel Product Asset Input String\r\n     * @param num ProcessOutput Amount\r\n     * @param processProductArvId Process Profile Steel Product Input String\r\n     * @param processProductArvNum Process Profile Steel Product Input Amount\r\n     * @param processOutputNum Process Profile Output Amount\r\n     * @param processId Process String\r\n     * @return id Steel Asset StringCharge\r\n     */\r\n    function _processProductAsset(bytes32 productAssetId, uint num, bytes32 processProductArvId, uint processProductArvNum, uint processOutputNum, bytes32 processId) internal returns (bytes32) {\r\n        (,address key,bytes32 productArvId,,uint balance,,,,bool isDel,) = steelAssetManager.getSteelProductAsset(productAssetId);\r\n        require(key == msg.sender, \"The sender has no ownership\");\r\n        require(!isDel, \"Input product asset has been deleted\");\r\n        require(productArvId == processProductArvId, \"Input product asset must match archive id\");\r\n        // Burn Process Material Information\r\n        steelAssetManager.deleteSteelProductAsset(productAssetId, block.timestamp);\r\n        // Create Process Material Charge Information\r\n        balance = balance.sub(num.mul(processProductArvNum).div(processOutputNum));\r\n        bytes32 id = bytes32(0);\r\n        if(balance > 0) {\r\n            id = steelAssetManager.createSteelProductAssetByManager(productAssetId, msg.sender, balance, block.timestamp, 2, processId);\r\n        }\r\n        return id;\r\n    }\r\n\r\n}",
  "sourcePath": "C:/Users/davy/Desktop/steel-asset-contract/contracts/SteelProcessManager.sol",
  "compiler": {
    "name": "solc",
    "version": "0.7.6+commit.7338295f.Emscripten.clang"
  },
  "schemaVersion": "3.4.0",
  "updatedAt": "2022-09-09T04:01:55.129Z",
  "devdoc": {
    "details": "For Process Steel Product Asset",
    "kind": "dev",
    "methods": {
      "getSteelProductProcess(bytes32)": {
        "details": "Get Steel Product Asset Process Information",
        "params": {
          "id": "Process String"
        },
        "returns": {
          "_0": "id Process String",
          "_1": "Key Public Key",
          "_2": "processArvId Steel Product Process Profile String ",
          "_3": "rawAssetIdList Raw Steel Asset Input String List",
          "_4": "productAssetIdList Steel Product Asset Input String List",
          "_5": "num ProcessOutput Amount",
          "_6": "date Process Date"
        }
      },
      "processSteelProductAsset(bytes32,bytes32[],bytes32[],uint256)": {
        "details": "Process Steel Product Asset ",
        "params": {
          "num": "ProcessOutput Amount",
          "processArvId": "Steel Product Process Profile String",
          "productAssetIdList": "Steel Product Asset Input String List",
          "rawAssetIdList": "Raw Steel Asset Input String List"
        },
        "returns": {
          "_0": "processId Process String",
          "_1": "newAssetId ProcessSteel Asset StringProcess",
          "_2": "newRawAssetIdList Raw Steel Asset String ListCharge",
          "_3": "newProductAssetIdList Steel Asset String ListCharge"
        }
      }
    },
    "title": "Steel Asset Process Centre",
    "version": 1
  },
  "userdoc": {
    "kind": "user",
    "methods": {},
    "version": 1
  }
}